{
  "abi": [
    {
      "inputs": [],
      "stateMutability": "nonpayable",
      "type": "constructor"
    },
    {
      "anonymous": false,
      "inputs": [
        {
          "indexed": true,
          "internalType": "address",
          "name": "owner",
          "type": "address"
        },
        {
          "indexed": true,
          "internalType": "address",
          "name": "spender",
          "type": "address"
        },
        {
          "indexed": false,
          "internalType": "uint256",
          "name": "value",
          "type": "uint256"
        }
      ],
      "name": "Approval",
      "type": "event"
    },
    {
      "anonymous": false,
      "inputs": [
        {
          "indexed": true,
          "internalType": "address",
          "name": "from",
          "type": "address"
        },
        {
          "indexed": true,
          "internalType": "address",
          "name": "to",
          "type": "address"
        },
        {
          "indexed": false,
          "internalType": "uint256",
          "name": "value",
          "type": "uint256"
        }
      ],
      "name": "Transfer",
      "type": "event"
    },
    {
      "anonymous": false,
      "inputs": [
        {
          "indexed": false,
          "internalType": "uint256",
          "name": "pollId",
          "type": "uint256"
        },
        {
          "indexed": false,
          "internalType": "string",
          "name": "proposal",
          "type": "string"
        },
        {
          "indexed": false,
          "internalType": "address",
          "name": "proposer",
          "type": "address"
        }
      ],
      "name": "newProposalDetails",
      "type": "event"
    },
    {
      "anonymous": false,
      "inputs": [
        {
          "indexed": false,
          "internalType": "uint256",
          "name": "pollId",
          "type": "uint256"
        },
        {
          "indexed": false,
          "internalType": "uint256",
          "name": "threshold",
          "type": "uint256"
        }
      ],
      "name": "thresholdSet",
      "type": "event"
    },
    {
      "anonymous": false,
      "inputs": [
        {
          "indexed": false,
          "internalType": "uint256",
          "name": "tokensPurchased",
          "type": "uint256"
        }
      ],
      "name": "tokensPurchased",
      "type": "event"
    },
    {
      "inputs": [
        {
          "internalType": "address",
          "name": "owner",
          "type": "address"
        },
        {
          "internalType": "address",
          "name": "spender",
          "type": "address"
        }
      ],
      "name": "allowance",
      "outputs": [
        {
          "internalType": "uint256",
          "name": "",
          "type": "uint256"
        }
      ],
      "stateMutability": "view",
      "type": "function"
    },
    {
      "inputs": [
        {
          "internalType": "address",
          "name": "spender",
          "type": "address"
        },
        {
          "internalType": "uint256",
          "name": "amount",
          "type": "uint256"
        }
      ],
      "name": "approve",
      "outputs": [
        {
          "internalType": "bool",
          "name": "",
          "type": "bool"
        }
      ],
      "stateMutability": "nonpayable",
      "type": "function"
    },
    {
      "inputs": [
        {
          "internalType": "address",
          "name": "account",
          "type": "address"
        }
      ],
      "name": "balanceOf",
      "outputs": [
        {
          "internalType": "uint256",
          "name": "",
          "type": "uint256"
        }
      ],
      "stateMutability": "view",
      "type": "function"
    },
    {
      "inputs": [
        {
          "internalType": "enum DAO.VotingStatus",
          "name": "status",
          "type": "uint8"
        },
        {
          "internalType": "uint256",
          "name": "_pollId",
          "type": "uint256"
        }
      ],
      "name": "changeVotingState",
      "outputs": [],
      "stateMutability": "nonpayable",
      "type": "function"
    },
    {
      "inputs": [],
      "name": "checkDAOtokenBalance",
      "outputs": [
        {
          "internalType": "uint256",
          "name": "",
          "type": "uint256"
        }
      ],
      "stateMutability": "view",
      "type": "function"
    },
    {
      "inputs": [
        {
          "internalType": "uint256",
          "name": "_pollId",
          "type": "uint256"
        }
      ],
      "name": "checkLiveVoteCount",
      "outputs": [
        {
          "internalType": "uint256",
          "name": "",
          "type": "uint256"
        },
        {
          "internalType": "uint256",
          "name": "",
          "type": "uint256"
        }
      ],
      "stateMutability": "view",
      "type": "function"
    },
    {
      "inputs": [],
      "name": "checkManagerEthBalance",
      "outputs": [
        {
          "internalType": "uint256",
          "name": "",
          "type": "uint256"
        }
      ],
      "stateMutability": "view",
      "type": "function"
    },
    {
      "inputs": [
        {
          "internalType": "uint256",
          "name": "_pollId",
          "type": "uint256"
        }
      ],
      "name": "checkPollFinalResult",
      "outputs": [
        {
          "internalType": "bool",
          "name": "",
          "type": "bool"
        }
      ],
      "stateMutability": "view",
      "type": "function"
    },
    {
      "inputs": [
        {
          "internalType": "uint256",
          "name": "_pollId",
          "type": "uint256"
        }
      ],
      "name": "checkProposalDetails",
      "outputs": [
        {
          "internalType": "string",
          "name": "",
          "type": "string"
        },
        {
          "internalType": "string[]",
          "name": "",
          "type": "string[]"
        }
      ],
      "stateMutability": "view",
      "type": "function"
    },
    {
      "inputs": [
        {
          "internalType": "uint256",
          "name": "tokens",
          "type": "uint256"
        }
      ],
      "name": "checkTokensCostInEther",
      "outputs": [
        {
          "internalType": "uint256",
          "name": "",
          "type": "uint256"
        }
      ],
      "stateMutability": "pure",
      "type": "function"
    },
    {
      "inputs": [
        {
          "internalType": "uint256",
          "name": "_pollId",
          "type": "uint256"
        }
      ],
      "name": "checkVoteCost",
      "outputs": [
        {
          "internalType": "uint256",
          "name": "",
          "type": "uint256"
        }
      ],
      "stateMutability": "view",
      "type": "function"
    },
    {
      "inputs": [
        {
          "internalType": "uint256",
          "name": "_pollId",
          "type": "uint256"
        }
      ],
      "name": "checkVotingStatus",
      "outputs": [
        {
          "internalType": "enum DAO.VotingStatus",
          "name": "",
          "type": "uint8"
        }
      ],
      "stateMutability": "view",
      "type": "function"
    },
    {
      "inputs": [],
      "name": "claim",
      "outputs": [],
      "stateMutability": "nonpayable",
      "type": "function"
    },
    {
      "inputs": [],
      "name": "decimals",
      "outputs": [
        {
          "internalType": "uint8",
          "name": "",
          "type": "uint8"
        }
      ],
      "stateMutability": "view",
      "type": "function"
    },
    {
      "inputs": [
        {
          "internalType": "address",
          "name": "spender",
          "type": "address"
        },
        {
          "internalType": "uint256",
          "name": "subtractedValue",
          "type": "uint256"
        }
      ],
      "name": "decreaseAllowance",
      "outputs": [
        {
          "internalType": "bool",
          "name": "",
          "type": "bool"
        }
      ],
      "stateMutability": "nonpayable",
      "type": "function"
    },
    {
      "inputs": [
        {
          "internalType": "address",
          "name": "spender",
          "type": "address"
        },
        {
          "internalType": "uint256",
          "name": "addedValue",
          "type": "uint256"
        }
      ],
      "name": "increaseAllowance",
      "outputs": [
        {
          "internalType": "bool",
          "name": "",
          "type": "bool"
        }
      ],
      "stateMutability": "nonpayable",
      "type": "function"
    },
    {
      "inputs": [],
      "name": "manager",
      "outputs": [
        {
          "internalType": "address payable",
          "name": "",
          "type": "address"
        }
      ],
      "stateMutability": "view",
      "type": "function"
    },
    {
      "inputs": [],
      "name": "name",
      "outputs": [
        {
          "internalType": "string",
          "name": "",
          "type": "string"
        }
      ],
      "stateMutability": "view",
      "type": "function"
    },
    {
      "inputs": [
        {
          "internalType": "string",
          "name": "proposal",
          "type": "string"
        },
        {
          "internalType": "string[]",
          "name": "options",
          "type": "string[]"
        }
      ],
      "name": "newProposal",
      "outputs": [
        {
          "internalType": "uint256",
          "name": "",
          "type": "uint256"
        }
      ],
      "stateMutability": "nonpayable",
      "type": "function"
    },
    {
      "inputs": [],
      "name": "pollId",
      "outputs": [
        {
          "internalType": "uint256",
          "name": "",
          "type": "uint256"
        }
      ],
      "stateMutability": "view",
      "type": "function"
    },
    {
      "inputs": [
        {
          "internalType": "uint256",
          "name": "",
          "type": "uint256"
        }
      ],
      "name": "proposals",
      "outputs": [
        {
          "internalType": "string",
          "name": "proposal",
          "type": "string"
        },
        {
          "internalType": "address",
          "name": "proposer",
          "type": "address"
        },
        {
          "internalType": "uint256",
          "name": "threshold",
          "type": "uint256"
        },
        {
          "internalType": "enum DAO.VotingStatus",
          "name": "votingStatus",
          "type": "uint8"
        },
        {
          "internalType": "uint256",
          "name": "highestValue",
          "type": "uint256"
        },
        {
          "internalType": "uint256",
          "name": "winningOption",
          "type": "uint256"
        },
        {
          "internalType": "bool",
          "name": "result",
          "type": "bool"
        }
      ],
      "stateMutability": "view",
      "type": "function"
    },
    {
      "inputs": [
        {
          "internalType": "uint256",
          "name": "tokens",
          "type": "uint256"
        }
      ],
      "name": "purchaseDAOtokens",
      "outputs": [],
      "stateMutability": "payable",
      "type": "function"
    },
    {
      "inputs": [
        {
          "internalType": "uint256",
          "name": "_pollId",
          "type": "uint256"
        },
        {
          "internalType": "uint256",
          "name": "threshold",
          "type": "uint256"
        }
      ],
      "name": "setThreshold",
      "outputs": [],
      "stateMutability": "nonpayable",
      "type": "function"
    },
    {
      "inputs": [
        {
          "internalType": "uint256",
          "name": "amount",
          "type": "uint256"
        }
      ],
      "name": "stake",
      "outputs": [],
      "stateMutability": "nonpayable",
      "type": "function"
    },
    {
      "inputs": [
        {
          "internalType": "address",
          "name": "",
          "type": "address"
        }
      ],
      "name": "stakedAmount",
      "outputs": [
        {
          "internalType": "uint256",
          "name": "",
          "type": "uint256"
        }
      ],
      "stateMutability": "view",
      "type": "function"
    },
    {
      "inputs": [
        {
          "internalType": "address",
          "name": "",
          "type": "address"
        }
      ],
      "name": "stakedAt",
      "outputs": [
        {
          "internalType": "uint256",
          "name": "",
          "type": "uint256"
        }
      ],
      "stateMutability": "view",
      "type": "function"
    },
    {
      "inputs": [],
      "name": "symbol",
      "outputs": [
        {
          "internalType": "string",
          "name": "",
          "type": "string"
        }
      ],
      "stateMutability": "view",
      "type": "function"
    },
    {
      "inputs": [],
      "name": "totalSupply",
      "outputs": [
        {
          "internalType": "uint256",
          "name": "",
          "type": "uint256"
        }
      ],
      "stateMutability": "view",
      "type": "function"
    },
    {
      "inputs": [
        {
          "internalType": "address",
          "name": "to",
          "type": "address"
        },
        {
          "internalType": "uint256",
          "name": "amount",
          "type": "uint256"
        }
      ],
      "name": "transfer",
      "outputs": [
        {
          "internalType": "bool",
          "name": "",
          "type": "bool"
        }
      ],
      "stateMutability": "nonpayable",
      "type": "function"
    },
    {
      "inputs": [],
      "name": "transferEthToManager",
      "outputs": [],
      "stateMutability": "nonpayable",
      "type": "function"
    },
    {
      "inputs": [
        {
          "internalType": "address",
          "name": "from",
          "type": "address"
        },
        {
          "internalType": "address",
          "name": "to",
          "type": "address"
        },
        {
          "internalType": "uint256",
          "name": "amount",
          "type": "uint256"
        }
      ],
      "name": "transferFrom",
      "outputs": [
        {
          "internalType": "bool",
          "name": "",
          "type": "bool"
        }
      ],
      "stateMutability": "nonpayable",
      "type": "function"
    },
    {
      "inputs": [
        {
          "internalType": "uint256",
          "name": "amount",
          "type": "uint256"
        }
      ],
      "name": "unStake",
      "outputs": [],
      "stateMutability": "nonpayable",
      "type": "function"
    },
    {
      "inputs": [
        {
          "internalType": "uint256",
          "name": "amount",
          "type": "uint256"
        },
        {
          "internalType": "uint256",
          "name": "_pollId",
          "type": "uint256"
        },
        {
          "internalType": "uint256",
          "name": "option",
          "type": "uint256"
        }
      ],
      "name": "vote",
      "outputs": [],
      "stateMutability": "nonpayable",
      "type": "function"
    },
    {
      "inputs": [
        {
          "internalType": "address",
          "name": "",
          "type": "address"
        },
        {
          "internalType": "uint256",
          "name": "",
          "type": "uint256"
        }
      ],
      "name": "votesCast",
      "outputs": [
        {
          "internalType": "uint256",
          "name": "",
          "type": "uint256"
        }
      ],
      "stateMutability": "view",
      "type": "function"
    }
  ],
  "bytecode": {
    "object": "0x60806040523480156200001157600080fd5b50604051806060016040528060238152602001620023b6602391396040805180820190915260038082526244414f60e81b602083015262000053838262000122565b50600462000062828262000122565b5050600580546001600160a01b0319163317905550620001ee565b634e487b7160e01b600052604160045260246000fd5b600181811c90821680620000a857607f821691505b602082108103620000c957634e487b7160e01b600052602260045260246000fd5b50919050565b601f8211156200011d57600081815260208120601f850160051c81016020861015620000f85750805b601f850160051c820191505b81811015620001195782815560010162000104565b5050505b505050565b81516001600160401b038111156200013e576200013e6200007d565b62000156816200014f845462000093565b84620000cf565b602080601f8311600181146200018e5760008415620001755750858301515b600019600386901b1c1916600185901b17855562000119565b600085815260208120601f198616915b82811015620001bf578886015182559484019460019091019084016200019e565b5085821015620001de5787850151600019600388901b60f8161c191681555b5050505050600190811b01905550565b6121b880620001fe6000396000f3fe6080604052600436106101f95760003560e01c80636f13ab001161010d578063a9059cbb116100a0578063d95c2e7d1161006f578063d95c2e7d1461061f578063dd62ed3e1461063f578063e3d7ed131461065f578063ef36bbde1461068d578063f9931855146106ba57600080fd5b8063a9059cbb146105b7578063b9c36209146105d7578063c6656983146105f7578063cd2ee0c81461060a57600080fd5b80639c7ebe93116100dc5780639c7ebe931461050a578063a457c2d71461052a578063a4c3acdb1461054a578063a694fc3a1461059757600080fd5b80636f13ab001461048957806370a082311461049f5780638a6655d6146104d557806395d89b41146104f557600080fd5b80632d89edf31161019057806346aafa3b1161015f57806346aafa3b146103cf578063481c6a75146104075780634e71d92d1461043f57806356a89c55146104545780635d3eea911461046957600080fd5b80632d89edf314610333578063313ce5671461037357806335b15fe91461038f57806339509351146103af57600080fd5b806318160ddd116101cc57806318160ddd146102ba57806323b872dd146102cf57806325b56120146102ef57806327db2f711461031157600080fd5b8063013cf08b146101fe57806306fdde031461023a578063095ea7b31461025c57806313cc57241461028c575b600080fd5b34801561020a57600080fd5b5061021e6102193660046119d4565b6106e7565b6040516102319796959493929190611a6b565b60405180910390f35b34801561024657600080fd5b5061024f6107bb565b6040516102319190611ac3565b34801561026857600080fd5b5061027c610277366004611af9565b61084d565b6040519015158152602001610231565b34801561029857600080fd5b506102ac6102a73660046119d4565b610867565b604051908152602001610231565b3480156102c657600080fd5b506002546102ac565b3480156102db57600080fd5b5061027c6102ea366004611b23565b610874565b3480156102fb57600080fd5b5061030f61030a366004611b5f565b610898565b005b34801561031d57600080fd5b50336000908152602081905260409020546102ac565b34801561033f57600080fd5b5061036661034e3660046119d4565b60009081526007602052604090206004015460ff1690565b6040516102319190611b81565b34801561037f57600080fd5b5060405160128152602001610231565b34801561039b57600080fd5b5061027c6103aa3660046119d4565b61095b565b3480156103bb57600080fd5b5061027c6103ca366004611af9565b6109eb565b3480156103db57600080fd5b506102ac6103ea366004611af9565b600860209081526000928352604080842090915290825290205481565b34801561041357600080fd5b50600554610427906001600160a01b031681565b6040516001600160a01b039091168152602001610231565b34801561044b57600080fd5b5061030f610a0d565b34801561046057600080fd5b5061030f610a61565b34801561047557600080fd5b5061030f6104843660046119d4565b610ac7565b34801561049557600080fd5b506102ac60065481565b3480156104ab57600080fd5b506102ac6104ba366004611b8f565b6001600160a01b031660009081526020819052604090205490565b3480156104e157600080fd5b5061030f6104f0366004611baa565b610b5b565b34801561050157600080fd5b5061024f610e1a565b34801561051657600080fd5b506102ac6105253660046119d4565b610e29565b34801561053657600080fd5b5061027c610545366004611af9565b610e67565b34801561055657600080fd5b506105826105653660046119d4565b600090815260076020819052604090912060058101549101549091565b60408051928352602083019190915201610231565b3480156105a357600080fd5b5061030f6105b23660046119d4565b610ee2565b3480156105c357600080fd5b5061027c6105d2366004611af9565b610f6c565b3480156105e357600080fd5b5061030f6105f2366004611bd6565b610f7a565b61030f6106053660046119d4565b610ff6565b34801561061657600080fd5b506102ac611097565b34801561062b57600080fd5b506102ac61063a366004611caf565b6110d5565b34801561064b57600080fd5b506102ac61065a366004611d96565b61131e565b34801561066b57600080fd5b5061067f61067a3660046119d4565b611349565b604051610231929190611dc9565b34801561069957600080fd5b506102ac6106a8366004611b8f565b600a6020526000908152604090205481565b3480156106c657600080fd5b506102ac6106d5366004611b8f565b60096020526000908152604090205481565b60076020526000908152604090208054819061070290611e3b565b80601f016020809104026020016040519081016040528092919081815260200182805461072e90611e3b565b801561077b5780601f106107505761010080835404028352916020019161077b565b820191906000526020600020905b81548152906001019060200180831161075e57829003601f168201915b5050506002840154600385015460048601546005870154600788015460089098015496976001600160a01b039094169692955060ff918216945092911687565b6060600380546107ca90611e3b565b80601f01602080910402602001604051908101604052809291908181526020018280546107f690611e3b565b80156108435780601f1061081857610100808354040283529160200191610843565b820191906000526020600020905b81548152906001019060200180831161082657829003601f168201915b5050505050905090565b60003361085b8185856114ca565b60019150505b92915050565b6000610861606483611e8b565b6000336108828582856115ee565b61088d858585611668565b506001949350505050565b6005546001600160a01b031633146108cb5760405162461bcd60e51b81526004016108c290611ead565b60405180910390fd5b6000818152600760205260409020600401805483919060ff191660018360028111156108f9576108f9611a33565b0217905550600282600281111561091257610912611a33565b148015610935575060008181526007602052604090206003810154600590910154115b15610957576000818152600760205260409020600801805460ff191660011790555b5050565b6000600260008381526007602052604090206004015460ff16600281111561098557610985611a33565b146109d25760405162461bcd60e51b815260206004820152601b60248201527f766f74696e67206861736e277420636f6d706c6574656420796574000000000060448201526064016108c2565b5060009081526007602052604090206008015460ff1690565b60003361085b8185856109fe838361131e565b610a089190611ee4565b6114ca565b336000908152600a602052604081204290819055906301e14320610a318380611ef7565b33600090815260096020526040902054610a4b9190611f0a565b610a559190611e8b565b9050610957338261180c565b6005546001600160a01b03163314610a8b5760405162461bcd60e51b81526004016108c290611ead565b6005546040516001600160a01b03909116904780156108fc02916000818181858888f19350505050158015610ac4573d6000803e3d6000fd5b50565b33600090815260096020526040902054811115610b185760405162461bcd60e51b815260206004820152600f60248201526e7374616b657320617265206c65737360881b60448201526064016108c2565b610b20610a0d565b3360009081526009602052604081208054839290610b3f908490611ef7565b9091555050600554610ac4906001600160a01b03163383611668565b6006548211158015610b6d5750600082115b610bab5760405162461bcd60e51b815260206004820152600f60248201526e1a5b9d985b1a59081c1bdb1b081251608a1b60448201526064016108c2565b600160008381526007602052604090206004015460ff166002811115610bd357610bd3611a33565b14610c205760405162461bcd60e51b815260206004820152601860248201527f566f74696e672069736e277420696e2070726f6772657373000000000000000060448201526064016108c2565b336000908152600860209081526040808320858452909152902054600290610c49906001611ee4565b610c539190612005565b610c5e906032611f0a565b8314610cbb5760405162461bcd60e51b815260206004820152602660248201527f73656e642074686520726967687420616d6f756e7420746f20636173742074686044820152656520766f746560d01b60648201526084016108c2565b33600090815260208190526040902054831115610d0d5760405162461bcd60e51b815260206004820152601060248201526f696e73756666696369656e742044414f60801b60448201526064016108c2565b3360009081526008602090815260408083208584529091528120805491610d3383612014565b90915550506000828152600760205260409020600601805482908110610d5b57610d5b61202d565b60009182526020822001805491610d7183612014565b9091555050600082815260076020526040902060058101546006909101805483908110610da057610da061202d565b90600052602060002001541115610dfd576000828152600760205260409020600601805482908110610dd457610dd461202d565b600091825260208083209091015484835260079182905260409092206005810192909255018190555b600554610e159033906001600160a01b031685611668565b505050565b6060600480546107ca90611e3b565b336000908152600860209081526040808320848452909152812054600290610e52906001611ee4565b610e5c9190612005565b610861906032611f0a565b60003381610e75828661131e565b905083811015610ed55760405162461bcd60e51b815260206004820152602560248201527f45524332303a2064656372656173656420616c6c6f77616e63652062656c6f77604482015264207a65726f60d81b60648201526084016108c2565b61088d82868684036114ca565b33600090815260208190526040902054811115610efe57600080fd5b3360009081526009602052604090205415610f1b57610f1b610a0d565b600554610f339033906001600160a01b031683611668565b3360009081526009602052604081208054839290610f52908490611ee4565b9091555050336000908152600a6020526040902042905550565b60003361085b818585611668565b6005546001600160a01b03163314610fa45760405162461bcd60e51b81526004016108c290611ead565b60008281526007602090815260409182902060030183905581518481529081018390527f71163fade43780aaa187e6cbb8c027121c97cc33677892663953107827f73cc0910160405180910390a15050565b610fff81610867565b61101190670de0b6b3a7640000611f0a565b34146110575760405162461bcd60e51b81526020600482015260156024820152741cd95b99081d1a19481c9a59da1d08185b5bdd5b9d605a1b60448201526064016108c2565b611061338261180c565b6040518181527f2d73649f1393ea75df45046ccd2d46c3fe316cc7b4c4df6702e79c6b333ae04e9060200160405180910390a150565b6005546000906001600160a01b031633146110c45760405162461bcd60e51b81526004016108c290611ead565b506005546001600160a01b03163190565b33600090815260208190526040812054601911156111285760405162461bcd60e51b815260206004820152601060248201526f696e73756666696369656e742044414f60801b60448201526064016108c2565b6005546111419033906001600160a01b03166019611668565b6006805490600061115183612014565b9190505550604051806101200160405280848152602001838152602001336001600160a01b03168152602001600081526020016000600281111561119757611197611a33565b815260200160008152602001600067ffffffffffffffff8111156111bd576111bd611bf8565b6040519080825280602002602001820160405280156111e6578160200160208202803683370190505b50815260006020808301829052604092830182905260065482526007905220815181906112139082612091565b50602082810151805161122c92600185019201906118cb565b506040820151600282810180546001600160a01b0319166001600160a01b03909316929092179091556060830151600383015560808301516004830180549192909160ff191690600190849081111561128757611287611a33565b021790555060a0820151600582015560c082015180516112b1916006840191602090910190611921565b5060e08201516007820155610100909101516008909101805460ff19169115159190911790556006546040517f6f230f76c01c0302945bd6dea3feb5e915ad4d055584b0a41a7083ca87786d259161130c9186903390612151565b60405180910390a15060065492915050565b6001600160a01b03918216600090815260016020908152604080832093909416825291909152205490565b6000818152600760205260409020805460609182916001820190829061136e90611e3b565b80601f016020809104026020016040519081016040528092919081815260200182805461139a90611e3b565b80156113e75780601f106113bc576101008083540402835291602001916113e7565b820191906000526020600020905b8154815290600101906020018083116113ca57829003601f168201915b5050505050915080805480602002602001604051908101604052809291908181526020016000905b828210156114bb57838290600052602060002001805461142e90611e3b565b80601f016020809104026020016040519081016040528092919081815260200182805461145a90611e3b565b80156114a75780601f1061147c576101008083540402835291602001916114a7565b820191906000526020600020905b81548152906001019060200180831161148a57829003601f168201915b50505050508152602001906001019061140f565b50505050905091509150915091565b6001600160a01b03831661152c5760405162461bcd60e51b8152602060048201526024808201527f45524332303a20617070726f76652066726f6d20746865207a65726f206164646044820152637265737360e01b60648201526084016108c2565b6001600160a01b03821661158d5760405162461bcd60e51b815260206004820152602260248201527f45524332303a20617070726f766520746f20746865207a65726f206164647265604482015261737360f01b60648201526084016108c2565b6001600160a01b0383811660008181526001602090815260408083209487168084529482529182902085905590518481527f8c5be1e5ebec7d5bd14f71427d1e84f3dd0314c0f7b2291e5b200ac8c7c3b925910160405180910390a3505050565b60006115fa848461131e565b9050600019811461166257818110156116555760405162461bcd60e51b815260206004820152601d60248201527f45524332303a20696e73756666696369656e7420616c6c6f77616e636500000060448201526064016108c2565b61166284848484036114ca565b50505050565b6001600160a01b0383166116cc5760405162461bcd60e51b815260206004820152602560248201527f45524332303a207472616e736665722066726f6d20746865207a65726f206164604482015264647265737360d81b60648201526084016108c2565b6001600160a01b03821661172e5760405162461bcd60e51b815260206004820152602360248201527f45524332303a207472616e7366657220746f20746865207a65726f206164647260448201526265737360e81b60648201526084016108c2565b6001600160a01b038316600090815260208190526040902054818110156117a65760405162461bcd60e51b815260206004820152602660248201527f45524332303a207472616e7366657220616d6f756e7420657863656564732062604482015265616c616e636560d01b60648201526084016108c2565b6001600160a01b03848116600081815260208181526040808320878703905593871680835291849020805487019055925185815290927fddf252ad1be2c89b69c2b068fc378daa952ba7f163c4a11628f55a4df523b3ef910160405180910390a3611662565b6001600160a01b0382166118625760405162461bcd60e51b815260206004820152601f60248201527f45524332303a206d696e7420746f20746865207a65726f20616464726573730060448201526064016108c2565b80600260008282546118749190611ee4565b90915550506001600160a01b038216600081815260208181526040808320805486019055518481527fddf252ad1be2c89b69c2b068fc378daa952ba7f163c4a11628f55a4df523b3ef910160405180910390a35050565b828054828255906000526020600020908101928215611911579160200282015b8281111561191157825182906119019082612091565b50916020019190600101906118eb565b5061191d929150611968565b5090565b82805482825590600052602060002090810192821561195c579160200282015b8281111561195c578251825591602001919060010190611941565b5061191d929150611985565b8082111561191d57600061197c828261199a565b50600101611968565b5b8082111561191d5760008155600101611986565b5080546119a690611e3b565b6000825580601f106119b6575050565b601f016020900490600052602060002090810190610ac49190611985565b6000602082840312156119e657600080fd5b5035919050565b6000815180845260005b81811015611a13576020818501810151868301820152016119f7565b506000602082860101526020601f19601f83011685010191505092915050565b634e487b7160e01b600052602160045260246000fd5b60038110611a6757634e487b7160e01b600052602160045260246000fd5b9052565b60e081526000611a7e60e083018a6119ed565b6001600160a01b0389166020840152604083018890529050611aa36060830187611a49565b8460808301528360a083015282151560c083015298975050505050505050565b602081526000611ad660208301846119ed565b9392505050565b80356001600160a01b0381168114611af457600080fd5b919050565b60008060408385031215611b0c57600080fd5b611b1583611add565b946020939093013593505050565b600080600060608486031215611b3857600080fd5b611b4184611add565b9250611b4f60208501611add565b9150604084013590509250925092565b60008060408385031215611b7257600080fd5b823560038110611b1557600080fd5b602081016108618284611a49565b600060208284031215611ba157600080fd5b611ad682611add565b600080600060608486031215611bbf57600080fd5b505081359360208301359350604090920135919050565b60008060408385031215611be957600080fd5b50508035926020909101359150565b634e487b7160e01b600052604160045260246000fd5b604051601f8201601f1916810167ffffffffffffffff81118282101715611c3757611c37611bf8565b604052919050565b600082601f830112611c5057600080fd5b813567ffffffffffffffff811115611c6a57611c6a611bf8565b611c7d601f8201601f1916602001611c0e565b818152846020838601011115611c9257600080fd5b816020850160208301376000918101602001919091529392505050565b60008060408385031215611cc257600080fd5b823567ffffffffffffffff80821115611cda57600080fd5b611ce686838701611c3f565b9350602091508185013581811115611cfd57600080fd5b8501601f81018713611d0e57600080fd5b803582811115611d2057611d20611bf8565b8060051b611d2f858201611c0e565b918252828101850191858101908a841115611d4957600080fd5b86850192505b83831015611d8557823586811115611d675760008081fd5b611d758c8983890101611c3f565b8352509186019190860190611d4f565b809750505050505050509250929050565b60008060408385031215611da957600080fd5b611db283611add565b9150611dc060208401611add565b90509250929050565b604081526000611ddc60408301856119ed565b6020838203818501528185518084528284019150828160051b85010183880160005b83811015611e2c57601f19878403018552611e1a8383516119ed565b94860194925090850190600101611dfe565b50909998505050505050505050565b600181811c90821680611e4f57607f821691505b602082108103611e6f57634e487b7160e01b600052602260045260246000fd5b50919050565b634e487b7160e01b600052601160045260246000fd5b600082611ea857634e487b7160e01b600052601260045260246000fd5b500490565b60208082526019908201527f4f6e6c7920746865206d616e616765722063616e2063616c6c00000000000000604082015260600190565b8082018082111561086157610861611e75565b8181038181111561086157610861611e75565b808202811582820484141761086157610861611e75565b600181815b80851115611f5c578160001904821115611f4257611f42611e75565b80851615611f4f57918102915b93841c9390800290611f26565b509250929050565b600082611f7357506001610861565b81611f8057506000610861565b8160018114611f965760028114611fa057611fbc565b6001915050610861565b60ff841115611fb157611fb1611e75565b50506001821b610861565b5060208310610133831016604e8410600b8410161715611fdf575081810a610861565b611fe98383611f21565b8060001904821115611ffd57611ffd611e75565b029392505050565b6000611ad660ff841683611f64565b60006001820161202657612026611e75565b5060010190565b634e487b7160e01b600052603260045260246000fd5b601f821115610e1557600081815260208120601f850160051c8101602086101561206a5750805b601f850160051c820191505b8181101561208957828155600101612076565b505050505050565b815167ffffffffffffffff8111156120ab576120ab611bf8565b6120bf816120b98454611e3b565b84612043565b602080601f8311600181146120f457600084156120dc5750858301515b600019600386901b1c1916600185901b178555612089565b600085815260208120601f198616915b8281101561212357888601518255948401946001909101908401612104565b50858210156121415787850151600019600388901b60f8161c191681555b5050505050600190811b01905550565b83815260606020820152600061216a60608301856119ed565b905060018060a01b038316604083015294935050505056fea2646970667358221220a88598231e57c6a070bf98f27ea6601d98463c9684e198c5b781686bb583ea6864736f6c63430008150033446563656e7472616c697a65644175746f6e6f6d6f75734f7267616e697a6174696f6e",
    "linkReferences": {}
  },
  "methodIdentifiers": {
    "allowance(address,address)": "dd62ed3e",
    "approve(address,uint256)": "095ea7b3",
    "balanceOf(address)": "70a08231",
    "changeVotingState(uint8,uint256)": "25b56120",
    "checkDAOtokenBalance()": "27db2f71",
    "checkLiveVoteCount(uint256)": "a4c3acdb",
    "checkManagerEthBalance()": "cd2ee0c8",
    "checkPollFinalResult(uint256)": "35b15fe9",
    "checkProposalDetails(uint256)": "e3d7ed13",
    "checkTokensCostInEther(uint256)": "13cc5724",
    "checkVoteCost(uint256)": "9c7ebe93",
    "checkVotingStatus(uint256)": "2d89edf3",
    "claim()": "4e71d92d",
    "decimals()": "313ce567",
    "decreaseAllowance(address,uint256)": "a457c2d7",
    "increaseAllowance(address,uint256)": "39509351",
    "manager()": "481c6a75",
    "name()": "06fdde03",
    "newProposal(string,string[])": "d95c2e7d",
    "pollId()": "6f13ab00",
    "proposals(uint256)": "013cf08b",
    "purchaseDAOtokens(uint256)": "c6656983",
    "setThreshold(uint256,uint256)": "b9c36209",
    "stake(uint256)": "a694fc3a",
    "stakedAmount(address)": "f9931855",
    "stakedAt(address)": "ef36bbde",
    "symbol()": "95d89b41",
    "totalSupply()": "18160ddd",
    "transfer(address,uint256)": "a9059cbb",
    "transferEthToManager()": "56a89c55",
    "transferFrom(address,address,uint256)": "23b872dd",
    "unStake(uint256)": "5d3eea91",
    "vote(uint256,uint256,uint256)": "8a6655d6",
    "votesCast(address,uint256)": "46aafa3b"
  },
  "id": 0
}