{
  "abi": [
    {
      "inputs": [],
      "stateMutability": "nonpayable",
      "type": "constructor"
    },
    {
      "anonymous": false,
      "inputs": [
        {
          "indexed": true,
          "internalType": "address",
          "name": "owner",
          "type": "address"
        },
        {
          "indexed": true,
          "internalType": "address",
          "name": "spender",
          "type": "address"
        },
        {
          "indexed": false,
          "internalType": "uint256",
          "name": "value",
          "type": "uint256"
        }
      ],
      "name": "Approval",
      "type": "event"
    },
    {
      "anonymous": false,
      "inputs": [
        {
          "indexed": true,
          "internalType": "address",
          "name": "from",
          "type": "address"
        },
        {
          "indexed": true,
          "internalType": "address",
          "name": "to",
          "type": "address"
        },
        {
          "indexed": false,
          "internalType": "uint256",
          "name": "value",
          "type": "uint256"
        }
      ],
      "name": "Transfer",
      "type": "event"
    },
    {
      "anonymous": false,
      "inputs": [
        {
          "indexed": false,
          "internalType": "uint256",
          "name": "pollId",
          "type": "uint256"
        },
        {
          "indexed": false,
          "internalType": "string",
          "name": "proposal",
          "type": "string"
        },
        {
          "indexed": false,
          "internalType": "address",
          "name": "proposer",
          "type": "address"
        }
      ],
      "name": "newProposalDetails",
      "type": "event"
    },
    {
      "anonymous": false,
      "inputs": [
        {
          "indexed": false,
          "internalType": "uint256",
          "name": "pollId",
          "type": "uint256"
        },
        {
          "indexed": false,
          "internalType": "uint256",
          "name": "threshold",
          "type": "uint256"
        }
      ],
      "name": "thresholdSet",
      "type": "event"
    },
    {
      "anonymous": false,
      "inputs": [
        {
          "indexed": false,
          "internalType": "uint256",
          "name": "tokensPurchased",
          "type": "uint256"
        }
      ],
      "name": "tokensPurchased",
      "type": "event"
    },
    {
      "inputs": [
        {
          "internalType": "address",
          "name": "owner",
          "type": "address"
        },
        {
          "internalType": "address",
          "name": "spender",
          "type": "address"
        }
      ],
      "name": "allowance",
      "outputs": [
        {
          "internalType": "uint256",
          "name": "",
          "type": "uint256"
        }
      ],
      "stateMutability": "view",
      "type": "function"
    },
    {
      "inputs": [
        {
          "internalType": "address",
          "name": "spender",
          "type": "address"
        },
        {
          "internalType": "uint256",
          "name": "amount",
          "type": "uint256"
        }
      ],
      "name": "approve",
      "outputs": [
        {
          "internalType": "bool",
          "name": "",
          "type": "bool"
        }
      ],
      "stateMutability": "nonpayable",
      "type": "function"
    },
    {
      "inputs": [
        {
          "internalType": "address",
          "name": "account",
          "type": "address"
        }
      ],
      "name": "balanceOf",
      "outputs": [
        {
          "internalType": "uint256",
          "name": "",
          "type": "uint256"
        }
      ],
      "stateMutability": "view",
      "type": "function"
    },
    {
      "inputs": [
        {
          "internalType": "enum DAO.VotingStatus",
          "name": "status",
          "type": "uint8"
        },
        {
          "internalType": "uint256",
          "name": "_pollId",
          "type": "uint256"
        }
      ],
      "name": "changeVotingState",
      "outputs": [],
      "stateMutability": "nonpayable",
      "type": "function"
    },
    {
      "inputs": [],
      "name": "checkDAOtokenBalance",
      "outputs": [
        {
          "internalType": "uint256",
          "name": "",
          "type": "uint256"
        }
      ],
      "stateMutability": "view",
      "type": "function"
    },
    {
      "inputs": [
        {
          "internalType": "uint256",
          "name": "tokens",
          "type": "uint256"
        }
      ],
      "name": "checkTokensCostInEther",
      "outputs": [
        {
          "internalType": "uint256",
          "name": "",
          "type": "uint256"
        }
      ],
      "stateMutability": "pure",
      "type": "function"
    },
    {
      "inputs": [
        {
          "internalType": "uint256",
          "name": "_pollId",
          "type": "uint256"
        }
      ],
      "name": "checkVoteCost",
      "outputs": [
        {
          "internalType": "uint256",
          "name": "",
          "type": "uint256"
        }
      ],
      "stateMutability": "view",
      "type": "function"
    },
    {
      "inputs": [
        {
          "internalType": "uint256",
          "name": "_pollId",
          "type": "uint256"
        }
      ],
      "name": "checkVotingStatus",
      "outputs": [
        {
          "internalType": "enum DAO.VotingStatus",
          "name": "",
          "type": "uint8"
        }
      ],
      "stateMutability": "view",
      "type": "function"
    },
    {
      "inputs": [],
      "name": "claim",
      "outputs": [],
      "stateMutability": "nonpayable",
      "type": "function"
    },
    {
      "inputs": [],
      "name": "decimals",
      "outputs": [
        {
          "internalType": "uint8",
          "name": "",
          "type": "uint8"
        }
      ],
      "stateMutability": "view",
      "type": "function"
    },
    {
      "inputs": [
        {
          "internalType": "address",
          "name": "spender",
          "type": "address"
        },
        {
          "internalType": "uint256",
          "name": "subtractedValue",
          "type": "uint256"
        }
      ],
      "name": "decreaseAllowance",
      "outputs": [
        {
          "internalType": "bool",
          "name": "",
          "type": "bool"
        }
      ],
      "stateMutability": "nonpayable",
      "type": "function"
    },
    {
      "inputs": [
        {
          "internalType": "address",
          "name": "spender",
          "type": "address"
        },
        {
          "internalType": "uint256",
          "name": "addedValue",
          "type": "uint256"
        }
      ],
      "name": "increaseAllowance",
      "outputs": [
        {
          "internalType": "bool",
          "name": "",
          "type": "bool"
        }
      ],
      "stateMutability": "nonpayable",
      "type": "function"
    },
    {
      "inputs": [],
      "name": "manager",
      "outputs": [
        {
          "internalType": "address payable",
          "name": "",
          "type": "address"
        }
      ],
      "stateMutability": "view",
      "type": "function"
    },
    {
      "inputs": [],
      "name": "managerEthBalance",
      "outputs": [
        {
          "internalType": "uint256",
          "name": "",
          "type": "uint256"
        }
      ],
      "stateMutability": "view",
      "type": "function"
    },
    {
      "inputs": [],
      "name": "name",
      "outputs": [
        {
          "internalType": "string",
          "name": "",
          "type": "string"
        }
      ],
      "stateMutability": "view",
      "type": "function"
    },
    {
      "inputs": [
        {
          "internalType": "string",
          "name": "proposal",
          "type": "string"
        },
        {
          "internalType": "string[]",
          "name": "options",
          "type": "string[]"
        }
      ],
      "name": "newProposal",
      "outputs": [
        {
          "internalType": "uint256",
          "name": "",
          "type": "uint256"
        }
      ],
      "stateMutability": "nonpayable",
      "type": "function"
    },
    {
      "inputs": [],
      "name": "pollId",
      "outputs": [
        {
          "internalType": "uint256",
          "name": "",
          "type": "uint256"
        }
      ],
      "stateMutability": "view",
      "type": "function"
    },
    {
      "inputs": [
        {
          "internalType": "uint256",
          "name": "_pollId",
          "type": "uint256"
        }
      ],
      "name": "proposalDetails",
      "outputs": [
        {
          "internalType": "string",
          "name": "",
          "type": "string"
        },
        {
          "internalType": "string[]",
          "name": "",
          "type": "string[]"
        }
      ],
      "stateMutability": "view",
      "type": "function"
    },
    {
      "inputs": [
        {
          "internalType": "uint256",
          "name": "",
          "type": "uint256"
        }
      ],
      "name": "proposals",
      "outputs": [
        {
          "internalType": "string",
          "name": "proposal",
          "type": "string"
        },
        {
          "internalType": "address",
          "name": "proposer",
          "type": "address"
        },
        {
          "internalType": "uint256",
          "name": "threshold",
          "type": "uint256"
        },
        {
          "internalType": "enum DAO.VotingStatus",
          "name": "votingStatus",
          "type": "uint8"
        },
        {
          "internalType": "uint256",
          "name": "highestValue",
          "type": "uint256"
        },
        {
          "internalType": "uint256",
          "name": "winningOption",
          "type": "uint256"
        }
      ],
      "stateMutability": "view",
      "type": "function"
    },
    {
      "inputs": [
        {
          "internalType": "uint256",
          "name": "tokens",
          "type": "uint256"
        }
      ],
      "name": "purchaseDAOtokens",
      "outputs": [],
      "stateMutability": "payable",
      "type": "function"
    },
    {
      "inputs": [
        {
          "internalType": "uint256",
          "name": "_pollId",
          "type": "uint256"
        },
        {
          "internalType": "uint256",
          "name": "threshold",
          "type": "uint256"
        }
      ],
      "name": "setThreshold",
      "outputs": [],
      "stateMutability": "nonpayable",
      "type": "function"
    },
    {
      "inputs": [
        {
          "internalType": "uint256",
          "name": "amount",
          "type": "uint256"
        }
      ],
      "name": "stake",
      "outputs": [],
      "stateMutability": "nonpayable",
      "type": "function"
    },
    {
      "inputs": [
        {
          "internalType": "address",
          "name": "",
          "type": "address"
        }
      ],
      "name": "stakedAmount",
      "outputs": [
        {
          "internalType": "uint256",
          "name": "",
          "type": "uint256"
        }
      ],
      "stateMutability": "view",
      "type": "function"
    },
    {
      "inputs": [
        {
          "internalType": "address",
          "name": "",
          "type": "address"
        }
      ],
      "name": "stakedAt",
      "outputs": [
        {
          "internalType": "uint256",
          "name": "",
          "type": "uint256"
        }
      ],
      "stateMutability": "view",
      "type": "function"
    },
    {
      "inputs": [],
      "name": "symbol",
      "outputs": [
        {
          "internalType": "string",
          "name": "",
          "type": "string"
        }
      ],
      "stateMutability": "view",
      "type": "function"
    },
    {
      "inputs": [],
      "name": "totalSupply",
      "outputs": [
        {
          "internalType": "uint256",
          "name": "",
          "type": "uint256"
        }
      ],
      "stateMutability": "view",
      "type": "function"
    },
    {
      "inputs": [
        {
          "internalType": "address",
          "name": "to",
          "type": "address"
        },
        {
          "internalType": "uint256",
          "name": "amount",
          "type": "uint256"
        }
      ],
      "name": "transfer",
      "outputs": [
        {
          "internalType": "bool",
          "name": "",
          "type": "bool"
        }
      ],
      "stateMutability": "nonpayable",
      "type": "function"
    },
    {
      "inputs": [],
      "name": "transferEthToManager",
      "outputs": [],
      "stateMutability": "nonpayable",
      "type": "function"
    },
    {
      "inputs": [
        {
          "internalType": "address",
          "name": "from",
          "type": "address"
        },
        {
          "internalType": "address",
          "name": "to",
          "type": "address"
        },
        {
          "internalType": "uint256",
          "name": "amount",
          "type": "uint256"
        }
      ],
      "name": "transferFrom",
      "outputs": [
        {
          "internalType": "bool",
          "name": "",
          "type": "bool"
        }
      ],
      "stateMutability": "nonpayable",
      "type": "function"
    },
    {
      "inputs": [
        {
          "internalType": "uint256",
          "name": "amount",
          "type": "uint256"
        }
      ],
      "name": "unStake",
      "outputs": [],
      "stateMutability": "nonpayable",
      "type": "function"
    },
    {
      "inputs": [
        {
          "internalType": "uint256",
          "name": "_pollId",
          "type": "uint256"
        }
      ],
      "name": "viewPollResults",
      "outputs": [
        {
          "internalType": "uint256",
          "name": "",
          "type": "uint256"
        },
        {
          "internalType": "uint256",
          "name": "",
          "type": "uint256"
        }
      ],
      "stateMutability": "view",
      "type": "function"
    },
    {
      "inputs": [
        {
          "internalType": "uint256",
          "name": "amount",
          "type": "uint256"
        },
        {
          "internalType": "uint256",
          "name": "_pollId",
          "type": "uint256"
        },
        {
          "internalType": "uint256",
          "name": "option",
          "type": "uint256"
        }
      ],
      "name": "vote",
      "outputs": [],
      "stateMutability": "nonpayable",
      "type": "function"
    },
    {
      "inputs": [
        {
          "internalType": "address",
          "name": "",
          "type": "address"
        },
        {
          "internalType": "uint256",
          "name": "",
          "type": "uint256"
        }
      ],
      "name": "votesCast",
      "outputs": [
        {
          "internalType": "uint256",
          "name": "",
          "type": "uint256"
        }
      ],
      "stateMutability": "view",
      "type": "function"
    }
  ],
  "bytecode": {
    "object": "0x60806040523480156200001157600080fd5b5060405180606001604052806023815260200162002176602391396040805180820190915260038082526244414f60e81b602083015262000053838262000122565b50600462000062828262000122565b5050600580546001600160a01b0319163317905550620001ee565b634e487b7160e01b600052604160045260246000fd5b600181811c90821680620000a857607f821691505b602082108103620000c957634e487b7160e01b600052602260045260246000fd5b50919050565b601f8211156200011d57600081815260208120601f850160051c81016020861015620000f85750805b601f850160051c820191505b81811015620001195782815560010162000104565b5050505b505050565b81516001600160401b038111156200013e576200013e6200007d565b62000156816200014f845462000093565b84620000cf565b602080601f8311600181146200018e5760008415620001755750858301515b600019600386901b1c1916600185901b17855562000119565b600085815260208120601f198616915b82811015620001bf578886015182559484019460019091019084016200019e565b5085821015620001de5787850151600019600388901b60f8161c191681555b5050505050600190811b01905550565b611f7880620001fe6000396000f3fe6080604052600436106101ee5760003560e01c806356a89c551161010d578063a457c2d7116100a0578063c66569831161006f578063c66569831461060e578063d95c2e7d14610621578063dd62ed3e14610641578063ef36bbde14610661578063f99318551461068e57600080fd5b8063a457c2d71461058e578063a694fc3a146105ae578063a9059cbb146105ce578063b9c36209146105ee57600080fd5b80638265986b116100dc5780638265986b146105245780638a6655d61461053957806395d89b41146105595780639c7ebe931461056e57600080fd5b806356a89c55146104a35780635d3eea91146104b85780636f13ab00146104d857806370a08231146104ee57600080fd5b806325b5612011610185578063395093511161015457806339509351146103fe57806346aafa3b1461041e578063481c6a75146104565780634e71d92d1461048e57600080fd5b806325b561201461035e57806327db2f71146103805780632d89edf3146103a2578063313ce567146103e257600080fd5b806313cc5724116101c157806313cc5724146102cd57806316e9eaec146102fb57806318160ddd1461032957806323b872dd1461033e57600080fd5b8063013cf08b146101f357806306fdde031461022e578063095ea7b3146102505780630e92f72414610280575b600080fd5b3480156101ff57600080fd5b5061021361020e3660046117a0565b6106bb565b60405161022596959493929190611837565b60405180910390f35b34801561023a57600080fd5b50610243610785565b6040516102259190611883565b34801561025c57600080fd5b5061027061026b3660046118b9565b610817565b6040519015158152602001610225565b34801561028c57600080fd5b506102b861029b3660046117a0565b600090815260076020819052604090912060058101549101549091565b60408051928352602083019190915201610225565b3480156102d957600080fd5b506102ed6102e83660046117a0565b610831565b604051908152602001610225565b34801561030757600080fd5b5061031b6103163660046117a0565b61083e565b6040516102259291906118e3565b34801561033557600080fd5b506002546102ed565b34801561034a57600080fd5b50610270610359366004611955565b6109bf565b34801561036a57600080fd5b5061037e610379366004611991565b6109e3565b005b34801561038c57600080fd5b50336000908152602081905260409020546102ed565b3480156103ae57600080fd5b506103d56103bd3660046117a0565b60009081526007602052604090206004015460ff1690565b60405161022591906119b3565b3480156103ee57600080fd5b5060405160128152602001610225565b34801561040a57600080fd5b506102706104193660046118b9565b610a4d565b34801561042a57600080fd5b506102ed6104393660046118b9565b600860209081526000928352604080842090915290825290205481565b34801561046257600080fd5b50600554610476906001600160a01b031681565b6040516001600160a01b039091168152602001610225565b34801561049a57600080fd5b5061037e610a6f565b3480156104af57600080fd5b5061037e610ac7565b3480156104c457600080fd5b5061037e6104d33660046117a0565b610b2d565b3480156104e457600080fd5b506102ed60065481565b3480156104fa57600080fd5b506102ed6105093660046119c1565b6001600160a01b031660009081526020819052604090205490565b34801561053057600080fd5b506102ed610bc1565b34801561054557600080fd5b5061037e6105543660046119dc565b610bff565b34801561056557600080fd5b50610243610e72565b34801561057a57600080fd5b506102ed6105893660046117a0565b610e81565b34801561059a57600080fd5b506102706105a93660046118b9565b610ebf565b3480156105ba57600080fd5b5061037e6105c93660046117a0565b610f3a565b3480156105da57600080fd5b506102706105e93660046118b9565b610fc4565b3480156105fa57600080fd5b5061037e610609366004611a08565b610fd2565b61037e61061c3660046117a0565b61104e565b34801561062d57600080fd5b506102ed61063c366004611ae1565b61108e565b34801561064d57600080fd5b506102ed61065c366004611bc8565b61126b565b34801561066d57600080fd5b506102ed61067c3660046119c1565b600a6020526000908152604090205481565b34801561069a57600080fd5b506102ed6106a93660046119c1565b60096020526000908152604090205481565b6007602052600090815260409020805481906106d690611bfb565b80601f016020809104026020016040519081016040528092919081815260200182805461070290611bfb565b801561074f5780601f106107245761010080835404028352916020019161074f565b820191906000526020600020905b81548152906001019060200180831161073257829003601f168201915b505050600284015460038501546004860154600587015460079097015495966001600160a01b039093169591945060ff16925086565b60606003805461079490611bfb565b80601f01602080910402602001604051908101604052809291908181526020018280546107c090611bfb565b801561080d5780601f106107e25761010080835404028352916020019161080d565b820191906000526020600020905b8154815290600101906020018083116107f057829003601f168201915b5050505050905090565b600033610825818585611296565b60019150505b92915050565b600061082b606483611c4b565b6000818152600760205260409020805460609182916001820190829061086390611bfb565b80601f016020809104026020016040519081016040528092919081815260200182805461088f90611bfb565b80156108dc5780601f106108b1576101008083540402835291602001916108dc565b820191906000526020600020905b8154815290600101906020018083116108bf57829003601f168201915b5050505050915080805480602002602001604051908101604052809291908181526020016000905b828210156109b057838290600052602060002001805461092390611bfb565b80601f016020809104026020016040519081016040528092919081815260200182805461094f90611bfb565b801561099c5780601f106109715761010080835404028352916020019161099c565b820191906000526020600020905b81548152906001019060200180831161097f57829003601f168201915b505050505081526020019060010190610904565b50505050905091509150915091565b6000336109cd8582856113ba565b6109d8858585611434565b506001949350505050565b6005546001600160a01b03163314610a165760405162461bcd60e51b8152600401610a0d90611c6d565b60405180910390fd5b6000818152600760205260409020600401805483919060ff19166001836002811115610a4457610a446117ff565b02179055505050565b600033610825818585610a60838361126b565b610a6a9190611ca4565b611296565b336000908152600a602052604081204290819055906301e14320610a938380611cb7565b33600090815260096020526040902054610aad9190611cca565b610ab79190611c4b565b9050610ac333826115d8565b5050565b6005546001600160a01b03163314610af15760405162461bcd60e51b8152600401610a0d90611c6d565b6005546040516001600160a01b03909116904780156108fc02916000818181858888f19350505050158015610b2a573d6000803e3d6000fd5b50565b33600090815260096020526040902054811115610b7e5760405162461bcd60e51b815260206004820152600f60248201526e7374616b657320617265206c65737360881b6044820152606401610a0d565b610b86610a6f565b3360009081526009602052604081208054839290610ba5908490611cb7565b9091555050600554610b2a906001600160a01b03163383611434565b6005546000906001600160a01b03163314610bee5760405162461bcd60e51b8152600401610a0d90611c6d565b506005546001600160a01b03163190565b600160008381526007602052604090206004015460ff166002811115610c2757610c276117ff565b14610c745760405162461bcd60e51b815260206004820152601860248201527f566f74696e672069736e277420696e2070726f677265737300000000000000006044820152606401610a0d565b336000908152600860209081526040808320858452909152902054600290610c9d906001611ca4565b610ca79190611dc5565b610cb2906032611cca565b8314610d0f5760405162461bcd60e51b815260206004820152602660248201527f73656e642074686520726967687420616d6f756e7420746f20636173742074686044820152656520766f746560d01b6064820152608401610a0d565b33600090815260208190526040902054831115610d655760405162461bcd60e51b8152602060048201526014602482015273696e73756666696369656e742062616c616e636560601b6044820152606401610a0d565b3360009081526008602090815260408083208584529091528120805491610d8b83611dd4565b90915550506000828152600760205260409020600601805482908110610db357610db3611ded565b60009182526020822001805491610dc983611dd4565b9091555050600082815260076020526040902060058101546006909101805483908110610df857610df8611ded565b90600052602060002001541115610e55576000828152600760205260409020600601805482908110610e2c57610e2c611ded565b600091825260208083209091015484835260079182905260409092206005810192909255018190555b600554610e6d9033906001600160a01b031685611434565b505050565b60606004805461079490611bfb565b336000908152600860209081526040808320848452909152812054600290610eaa906001611ca4565b610eb49190611dc5565b61082b906032611cca565b60003381610ecd828661126b565b905083811015610f2d5760405162461bcd60e51b815260206004820152602560248201527f45524332303a2064656372656173656420616c6c6f77616e63652062656c6f77604482015264207a65726f60d81b6064820152608401610a0d565b6109d88286868403611296565b33600090815260208190526040902054811115610f5657600080fd5b3360009081526009602052604090205415610f7357610f73610a6f565b600554610f8b9033906001600160a01b031683611434565b3360009081526009602052604081208054839290610faa908490611ca4565b9091555050336000908152600a6020526040902042905550565b600033610825818585611434565b6005546001600160a01b03163314610ffc5760405162461bcd60e51b8152600401610a0d90611c6d565b60008281526007602090815260409182902060030183905581518481529081018390527f71163fade43780aaa187e6cbb8c027121c97cc33677892663953107827f73cc0910160405180910390a15050565b61105833826115d8565b6040518181527f2d73649f1393ea75df45046ccd2d46c3fe316cc7b4c4df6702e79c6b333ae04e9060200160405180910390a150565b6005546000906110aa9033906001600160a01b03166019611434565b600680549060006110ba83611dd4565b9190505550604051806101000160405280848152602001838152602001336001600160a01b031681526020016000815260200160006002811115611100576111006117ff565b815260200160008152602001600067ffffffffffffffff81111561112657611126611a2a565b60405190808252806020026020018201604052801561114f578160200160208202803683370190505b508152600060209182018190526006548152600790915260409020815181906111789082611e51565b5060208281015180516111919260018501920190611697565b506040820151600282810180546001600160a01b0319166001600160a01b03909316929092179091556060830151600383015560808301516004830180549192909160ff19169060019084908111156111ec576111ec6117ff565b021790555060a0820151600582015560c082015180516112169160068401916020909101906116ed565b5060e082015181600701559050507f6f230f76c01c0302945bd6dea3feb5e915ad4d055584b0a41a7083ca87786d25600654843360405161125993929190611f11565b60405180910390a15060065492915050565b6001600160a01b03918216600090815260016020908152604080832093909416825291909152205490565b6001600160a01b0383166112f85760405162461bcd60e51b8152602060048201526024808201527f45524332303a20617070726f76652066726f6d20746865207a65726f206164646044820152637265737360e01b6064820152608401610a0d565b6001600160a01b0382166113595760405162461bcd60e51b815260206004820152602260248201527f45524332303a20617070726f766520746f20746865207a65726f206164647265604482015261737360f01b6064820152608401610a0d565b6001600160a01b0383811660008181526001602090815260408083209487168084529482529182902085905590518481527f8c5be1e5ebec7d5bd14f71427d1e84f3dd0314c0f7b2291e5b200ac8c7c3b925910160405180910390a3505050565b60006113c6848461126b565b9050600019811461142e57818110156114215760405162461bcd60e51b815260206004820152601d60248201527f45524332303a20696e73756666696369656e7420616c6c6f77616e63650000006044820152606401610a0d565b61142e8484848403611296565b50505050565b6001600160a01b0383166114985760405162461bcd60e51b815260206004820152602560248201527f45524332303a207472616e736665722066726f6d20746865207a65726f206164604482015264647265737360d81b6064820152608401610a0d565b6001600160a01b0382166114fa5760405162461bcd60e51b815260206004820152602360248201527f45524332303a207472616e7366657220746f20746865207a65726f206164647260448201526265737360e81b6064820152608401610a0d565b6001600160a01b038316600090815260208190526040902054818110156115725760405162461bcd60e51b815260206004820152602660248201527f45524332303a207472616e7366657220616d6f756e7420657863656564732062604482015265616c616e636560d01b6064820152608401610a0d565b6001600160a01b03848116600081815260208181526040808320878703905593871680835291849020805487019055925185815290927fddf252ad1be2c89b69c2b068fc378daa952ba7f163c4a11628f55a4df523b3ef910160405180910390a361142e565b6001600160a01b03821661162e5760405162461bcd60e51b815260206004820152601f60248201527f45524332303a206d696e7420746f20746865207a65726f2061646472657373006044820152606401610a0d565b80600260008282546116409190611ca4565b90915550506001600160a01b038216600081815260208181526040808320805486019055518481527fddf252ad1be2c89b69c2b068fc378daa952ba7f163c4a11628f55a4df523b3ef910160405180910390a35050565b8280548282559060005260206000209081019282156116dd579160200282015b828111156116dd57825182906116cd9082611e51565b50916020019190600101906116b7565b506116e9929150611734565b5090565b828054828255906000526020600020908101928215611728579160200282015b8281111561172857825182559160200191906001019061170d565b506116e9929150611751565b808211156116e95760006117488282611766565b50600101611734565b5b808211156116e95760008155600101611752565b50805461177290611bfb565b6000825580601f10611782575050565b601f016020900490600052602060002090810190610b2a9190611751565b6000602082840312156117b257600080fd5b5035919050565b6000815180845260005b818110156117df576020818501810151868301820152016117c3565b506000602082860101526020601f19601f83011685010191505092915050565b634e487b7160e01b600052602160045260246000fd5b6003811061183357634e487b7160e01b600052602160045260246000fd5b9052565b60c08152600061184a60c08301896117b9565b6001600160a01b038816602084015260408301879052905061186f6060830186611815565b608082019390935260a00152949350505050565b60208152600061189660208301846117b9565b9392505050565b80356001600160a01b03811681146118b457600080fd5b919050565b600080604083850312156118cc57600080fd5b6118d58361189d565b946020939093013593505050565b6040815260006118f660408301856117b9565b6020838203818501528185518084528284019150828160051b85010183880160005b8381101561194657601f198784030185526119348383516117b9565b94860194925090850190600101611918565b50909998505050505050505050565b60008060006060848603121561196a57600080fd5b6119738461189d565b92506119816020850161189d565b9150604084013590509250925092565b600080604083850312156119a457600080fd5b8235600381106118d557600080fd5b6020810161082b8284611815565b6000602082840312156119d357600080fd5b6118968261189d565b6000806000606084860312156119f157600080fd5b505081359360208301359350604090920135919050565b60008060408385031215611a1b57600080fd5b50508035926020909101359150565b634e487b7160e01b600052604160045260246000fd5b604051601f8201601f1916810167ffffffffffffffff81118282101715611a6957611a69611a2a565b604052919050565b600082601f830112611a8257600080fd5b813567ffffffffffffffff811115611a9c57611a9c611a2a565b611aaf601f8201601f1916602001611a40565b818152846020838601011115611ac457600080fd5b816020850160208301376000918101602001919091529392505050565b60008060408385031215611af457600080fd5b823567ffffffffffffffff80821115611b0c57600080fd5b611b1886838701611a71565b9350602091508185013581811115611b2f57600080fd5b8501601f81018713611b4057600080fd5b803582811115611b5257611b52611a2a565b8060051b611b61858201611a40565b918252828101850191858101908a841115611b7b57600080fd5b86850192505b83831015611bb757823586811115611b995760008081fd5b611ba78c8983890101611a71565b8352509186019190860190611b81565b809750505050505050509250929050565b60008060408385031215611bdb57600080fd5b611be48361189d565b9150611bf26020840161189d565b90509250929050565b600181811c90821680611c0f57607f821691505b602082108103611c2f57634e487b7160e01b600052602260045260246000fd5b50919050565b634e487b7160e01b600052601160045260246000fd5b600082611c6857634e487b7160e01b600052601260045260246000fd5b500490565b60208082526019908201527f4f6e6c7920746865206d616e616765722063616e2063616c6c00000000000000604082015260600190565b8082018082111561082b5761082b611c35565b8181038181111561082b5761082b611c35565b808202811582820484141761082b5761082b611c35565b600181815b80851115611d1c578160001904821115611d0257611d02611c35565b80851615611d0f57918102915b93841c9390800290611ce6565b509250929050565b600082611d335750600161082b565b81611d405750600061082b565b8160018114611d565760028114611d6057611d7c565b600191505061082b565b60ff841115611d7157611d71611c35565b50506001821b61082b565b5060208310610133831016604e8410600b8410161715611d9f575081810a61082b565b611da98383611ce1565b8060001904821115611dbd57611dbd611c35565b029392505050565b600061189660ff841683611d24565b600060018201611de657611de6611c35565b5060010190565b634e487b7160e01b600052603260045260246000fd5b601f821115610e6d57600081815260208120601f850160051c81016020861015611e2a5750805b601f850160051c820191505b81811015611e4957828155600101611e36565b505050505050565b815167ffffffffffffffff811115611e6b57611e6b611a2a565b611e7f81611e798454611bfb565b84611e03565b602080601f831160018114611eb45760008415611e9c5750858301515b600019600386901b1c1916600185901b178555611e49565b600085815260208120601f198616915b82811015611ee357888601518255948401946001909101908401611ec4565b5085821015611f015787850151600019600388901b60f8161c191681555b5050505050600190811b01905550565b838152606060208201526000611f2a60608301856117b9565b905060018060a01b038316604083015294935050505056fea26469706673582212203fb0d49128bd6a4a911b2b040bde70e736863c19c6ef41363b3b8ac95608d48c64736f6c63430008150033446563656e7472616c697a65644175746f6e6f6d6f75734f7267616e697a6174696f6e",
    "linkReferences": {}
  },
  "methodIdentifiers": {
    "allowance(address,address)": "dd62ed3e",
    "approve(address,uint256)": "095ea7b3",
    "balanceOf(address)": "70a08231",
    "changeVotingState(uint8,uint256)": "25b56120",
    "checkDAOtokenBalance()": "27db2f71",
    "checkTokensCostInEther(uint256)": "13cc5724",
    "checkVoteCost(uint256)": "9c7ebe93",
    "checkVotingStatus(uint256)": "2d89edf3",
    "claim()": "4e71d92d",
    "decimals()": "313ce567",
    "decreaseAllowance(address,uint256)": "a457c2d7",
    "increaseAllowance(address,uint256)": "39509351",
    "manager()": "481c6a75",
    "managerEthBalance()": "8265986b",
    "name()": "06fdde03",
    "newProposal(string,string[])": "d95c2e7d",
    "pollId()": "6f13ab00",
    "proposalDetails(uint256)": "16e9eaec",
    "proposals(uint256)": "013cf08b",
    "purchaseDAOtokens(uint256)": "c6656983",
    "setThreshold(uint256,uint256)": "b9c36209",
    "stake(uint256)": "a694fc3a",
    "stakedAmount(address)": "f9931855",
    "stakedAt(address)": "ef36bbde",
    "symbol()": "95d89b41",
    "totalSupply()": "18160ddd",
    "transfer(address,uint256)": "a9059cbb",
    "transferEthToManager()": "56a89c55",
    "transferFrom(address,address,uint256)": "23b872dd",
    "unStake(uint256)": "5d3eea91",
    "viewPollResults(uint256)": "0e92f724",
    "vote(uint256,uint256,uint256)": "8a6655d6",
    "votesCast(address,uint256)": "46aafa3b"
  },
  "id": 0
}