{
  "abi": [
    {
      "inputs": [],
      "stateMutability": "nonpayable",
      "type": "constructor"
    },
    {
      "anonymous": false,
      "inputs": [
        {
          "indexed": true,
          "internalType": "address",
          "name": "owner",
          "type": "address"
        },
        {
          "indexed": true,
          "internalType": "address",
          "name": "spender",
          "type": "address"
        },
        {
          "indexed": false,
          "internalType": "uint256",
          "name": "value",
          "type": "uint256"
        }
      ],
      "name": "Approval",
      "type": "event"
    },
    {
      "anonymous": false,
      "inputs": [
        {
          "indexed": true,
          "internalType": "address",
          "name": "from",
          "type": "address"
        },
        {
          "indexed": true,
          "internalType": "address",
          "name": "to",
          "type": "address"
        },
        {
          "indexed": false,
          "internalType": "uint256",
          "name": "value",
          "type": "uint256"
        }
      ],
      "name": "Transfer",
      "type": "event"
    },
    {
      "anonymous": false,
      "inputs": [
        {
          "indexed": false,
          "internalType": "uint256",
          "name": "pollId",
          "type": "uint256"
        },
        {
          "indexed": false,
          "internalType": "string",
          "name": "proposal",
          "type": "string"
        },
        {
          "indexed": false,
          "internalType": "address",
          "name": "proposer",
          "type": "address"
        }
      ],
      "name": "newProposalDetails",
      "type": "event"
    },
    {
      "anonymous": false,
      "inputs": [
        {
          "indexed": false,
          "internalType": "uint256",
          "name": "pollId",
          "type": "uint256"
        },
        {
          "indexed": false,
          "internalType": "uint256",
          "name": "threshold",
          "type": "uint256"
        }
      ],
      "name": "thresholdSet",
      "type": "event"
    },
    {
      "anonymous": false,
      "inputs": [
        {
          "indexed": false,
          "internalType": "uint256",
          "name": "tokensPurchased",
          "type": "uint256"
        }
      ],
      "name": "tokensPurchased",
      "type": "event"
    },
    {
      "inputs": [
        {
          "internalType": "address",
          "name": "owner",
          "type": "address"
        },
        {
          "internalType": "address",
          "name": "spender",
          "type": "address"
        }
      ],
      "name": "allowance",
      "outputs": [
        {
          "internalType": "uint256",
          "name": "",
          "type": "uint256"
        }
      ],
      "stateMutability": "view",
      "type": "function"
    },
    {
      "inputs": [
        {
          "internalType": "address",
          "name": "spender",
          "type": "address"
        },
        {
          "internalType": "uint256",
          "name": "amount",
          "type": "uint256"
        }
      ],
      "name": "approve",
      "outputs": [
        {
          "internalType": "bool",
          "name": "",
          "type": "bool"
        }
      ],
      "stateMutability": "nonpayable",
      "type": "function"
    },
    {
      "inputs": [
        {
          "internalType": "address",
          "name": "account",
          "type": "address"
        }
      ],
      "name": "balanceOf",
      "outputs": [
        {
          "internalType": "uint256",
          "name": "",
          "type": "uint256"
        }
      ],
      "stateMutability": "view",
      "type": "function"
    },
    {
      "inputs": [
        {
          "internalType": "enum DAO.VotingStatus",
          "name": "status",
          "type": "uint8"
        },
        {
          "internalType": "uint256",
          "name": "_pollId",
          "type": "uint256"
        }
      ],
      "name": "changeVotingState",
      "outputs": [],
      "stateMutability": "nonpayable",
      "type": "function"
    },
    {
      "inputs": [],
      "name": "checkDAOtokenBalance",
      "outputs": [
        {
          "internalType": "uint256",
          "name": "",
          "type": "uint256"
        }
      ],
      "stateMutability": "view",
      "type": "function"
    },
    {
      "inputs": [
        {
          "internalType": "uint256",
          "name": "_pollId",
          "type": "uint256"
        }
      ],
      "name": "checkFinalResult",
      "outputs": [
        {
          "internalType": "string",
          "name": "",
          "type": "string"
        }
      ],
      "stateMutability": "view",
      "type": "function"
    },
    {
      "inputs": [
        {
          "internalType": "uint256",
          "name": "_pollId",
          "type": "uint256"
        }
      ],
      "name": "checkLiveVoteCount",
      "outputs": [
        {
          "internalType": "uint256",
          "name": "",
          "type": "uint256"
        },
        {
          "internalType": "string",
          "name": "",
          "type": "string"
        }
      ],
      "stateMutability": "view",
      "type": "function"
    },
    {
      "inputs": [],
      "name": "checkManagerEthBalance",
      "outputs": [
        {
          "internalType": "uint256",
          "name": "",
          "type": "uint256"
        }
      ],
      "stateMutability": "view",
      "type": "function"
    },
    {
      "inputs": [
        {
          "internalType": "uint256",
          "name": "_pollId",
          "type": "uint256"
        }
      ],
      "name": "checkProposalDetails",
      "outputs": [
        {
          "internalType": "string",
          "name": "",
          "type": "string"
        },
        {
          "internalType": "string[]",
          "name": "",
          "type": "string[]"
        }
      ],
      "stateMutability": "view",
      "type": "function"
    },
    {
      "inputs": [
        {
          "internalType": "uint256",
          "name": "tokens",
          "type": "uint256"
        }
      ],
      "name": "checkTokensCostInEther",
      "outputs": [
        {
          "internalType": "uint256",
          "name": "",
          "type": "uint256"
        }
      ],
      "stateMutability": "pure",
      "type": "function"
    },
    {
      "inputs": [
        {
          "internalType": "uint256",
          "name": "_pollId",
          "type": "uint256"
        }
      ],
      "name": "checkVoteCost",
      "outputs": [
        {
          "internalType": "uint256",
          "name": "",
          "type": "uint256"
        }
      ],
      "stateMutability": "view",
      "type": "function"
    },
    {
      "inputs": [
        {
          "internalType": "uint256",
          "name": "_pollId",
          "type": "uint256"
        }
      ],
      "name": "checkVotingStatus",
      "outputs": [
        {
          "internalType": "enum DAO.VotingStatus",
          "name": "",
          "type": "uint8"
        }
      ],
      "stateMutability": "view",
      "type": "function"
    },
    {
      "inputs": [],
      "name": "claim",
      "outputs": [],
      "stateMutability": "nonpayable",
      "type": "function"
    },
    {
      "inputs": [],
      "name": "decimals",
      "outputs": [
        {
          "internalType": "uint8",
          "name": "",
          "type": "uint8"
        }
      ],
      "stateMutability": "view",
      "type": "function"
    },
    {
      "inputs": [
        {
          "internalType": "address",
          "name": "spender",
          "type": "address"
        },
        {
          "internalType": "uint256",
          "name": "subtractedValue",
          "type": "uint256"
        }
      ],
      "name": "decreaseAllowance",
      "outputs": [
        {
          "internalType": "bool",
          "name": "",
          "type": "bool"
        }
      ],
      "stateMutability": "nonpayable",
      "type": "function"
    },
    {
      "inputs": [
        {
          "internalType": "address",
          "name": "spender",
          "type": "address"
        },
        {
          "internalType": "uint256",
          "name": "addedValue",
          "type": "uint256"
        }
      ],
      "name": "increaseAllowance",
      "outputs": [
        {
          "internalType": "bool",
          "name": "",
          "type": "bool"
        }
      ],
      "stateMutability": "nonpayable",
      "type": "function"
    },
    {
      "inputs": [],
      "name": "manager",
      "outputs": [
        {
          "internalType": "address payable",
          "name": "",
          "type": "address"
        }
      ],
      "stateMutability": "view",
      "type": "function"
    },
    {
      "inputs": [],
      "name": "name",
      "outputs": [
        {
          "internalType": "string",
          "name": "",
          "type": "string"
        }
      ],
      "stateMutability": "view",
      "type": "function"
    },
    {
      "inputs": [
        {
          "internalType": "string",
          "name": "proposal",
          "type": "string"
        },
        {
          "internalType": "string[]",
          "name": "options",
          "type": "string[]"
        }
      ],
      "name": "newProposal",
      "outputs": [
        {
          "internalType": "uint256",
          "name": "",
          "type": "uint256"
        }
      ],
      "stateMutability": "nonpayable",
      "type": "function"
    },
    {
      "inputs": [],
      "name": "pollId",
      "outputs": [
        {
          "internalType": "uint256",
          "name": "",
          "type": "uint256"
        }
      ],
      "stateMutability": "view",
      "type": "function"
    },
    {
      "inputs": [
        {
          "internalType": "uint256",
          "name": "",
          "type": "uint256"
        }
      ],
      "name": "proposals",
      "outputs": [
        {
          "internalType": "string",
          "name": "proposal",
          "type": "string"
        },
        {
          "internalType": "address",
          "name": "proposer",
          "type": "address"
        },
        {
          "internalType": "uint256",
          "name": "threshold",
          "type": "uint256"
        },
        {
          "internalType": "enum DAO.VotingStatus",
          "name": "votingStatus",
          "type": "uint8"
        },
        {
          "internalType": "uint256",
          "name": "highestValue",
          "type": "uint256"
        },
        {
          "internalType": "uint256",
          "name": "winningOption",
          "type": "uint256"
        },
        {
          "internalType": "bool",
          "name": "result",
          "type": "bool"
        }
      ],
      "stateMutability": "view",
      "type": "function"
    },
    {
      "inputs": [],
      "name": "purchaseDAOtokens",
      "outputs": [],
      "stateMutability": "payable",
      "type": "function"
    },
    {
      "inputs": [
        {
          "internalType": "uint256",
          "name": "_pollId",
          "type": "uint256"
        },
        {
          "internalType": "uint256",
          "name": "threshold",
          "type": "uint256"
        }
      ],
      "name": "setThreshold",
      "outputs": [],
      "stateMutability": "nonpayable",
      "type": "function"
    },
    {
      "inputs": [
        {
          "internalType": "uint256",
          "name": "amount",
          "type": "uint256"
        }
      ],
      "name": "stake",
      "outputs": [],
      "stateMutability": "nonpayable",
      "type": "function"
    },
    {
      "inputs": [
        {
          "internalType": "address",
          "name": "",
          "type": "address"
        }
      ],
      "name": "stakedAmount",
      "outputs": [
        {
          "internalType": "uint256",
          "name": "",
          "type": "uint256"
        }
      ],
      "stateMutability": "view",
      "type": "function"
    },
    {
      "inputs": [
        {
          "internalType": "address",
          "name": "",
          "type": "address"
        }
      ],
      "name": "stakedAt",
      "outputs": [
        {
          "internalType": "uint256",
          "name": "",
          "type": "uint256"
        }
      ],
      "stateMutability": "view",
      "type": "function"
    },
    {
      "inputs": [],
      "name": "symbol",
      "outputs": [
        {
          "internalType": "string",
          "name": "",
          "type": "string"
        }
      ],
      "stateMutability": "view",
      "type": "function"
    },
    {
      "inputs": [],
      "name": "totalSupply",
      "outputs": [
        {
          "internalType": "uint256",
          "name": "",
          "type": "uint256"
        }
      ],
      "stateMutability": "view",
      "type": "function"
    },
    {
      "inputs": [
        {
          "internalType": "address",
          "name": "to",
          "type": "address"
        },
        {
          "internalType": "uint256",
          "name": "amount",
          "type": "uint256"
        }
      ],
      "name": "transfer",
      "outputs": [
        {
          "internalType": "bool",
          "name": "",
          "type": "bool"
        }
      ],
      "stateMutability": "nonpayable",
      "type": "function"
    },
    {
      "inputs": [],
      "name": "transferEthToManager",
      "outputs": [],
      "stateMutability": "nonpayable",
      "type": "function"
    },
    {
      "inputs": [
        {
          "internalType": "address",
          "name": "from",
          "type": "address"
        },
        {
          "internalType": "address",
          "name": "to",
          "type": "address"
        },
        {
          "internalType": "uint256",
          "name": "amount",
          "type": "uint256"
        }
      ],
      "name": "transferFrom",
      "outputs": [
        {
          "internalType": "bool",
          "name": "",
          "type": "bool"
        }
      ],
      "stateMutability": "nonpayable",
      "type": "function"
    },
    {
      "inputs": [
        {
          "internalType": "uint256",
          "name": "amount",
          "type": "uint256"
        }
      ],
      "name": "unStake",
      "outputs": [],
      "stateMutability": "nonpayable",
      "type": "function"
    },
    {
      "inputs": [
        {
          "internalType": "uint256",
          "name": "_pollId",
          "type": "uint256"
        },
        {
          "internalType": "uint256",
          "name": "option",
          "type": "uint256"
        }
      ],
      "name": "vote",
      "outputs": [],
      "stateMutability": "nonpayable",
      "type": "function"
    },
    {
      "inputs": [
        {
          "internalType": "address",
          "name": "",
          "type": "address"
        },
        {
          "internalType": "uint256",
          "name": "",
          "type": "uint256"
        }
      ],
      "name": "votesCast",
      "outputs": [
        {
          "internalType": "uint256",
          "name": "",
          "type": "uint256"
        }
      ],
      "stateMutability": "view",
      "type": "function"
    }
  ],
  "bytecode": {
    "object": "0x60806040523480156200001157600080fd5b506040518060600160405280602381526020016200258e602391396040805180820190915260038082526244414f60e81b602083015262000053838262000122565b50600462000062828262000122565b5050600580546001600160a01b0319163317905550620001ee565b634e487b7160e01b600052604160045260246000fd5b600181811c90821680620000a857607f821691505b602082108103620000c957634e487b7160e01b600052602260045260246000fd5b50919050565b601f8211156200011d57600081815260208120601f850160051c81016020861015620000f85750805b601f850160051c820191505b81811015620001195782815560010162000104565b5050505b505050565b81516001600160401b038111156200013e576200013e6200007d565b62000156816200014f845462000093565b84620000cf565b602080601f8311600181146200018e5760008415620001755750858301515b600019600386901b1c1916600185901b17855562000119565b600085815260208120601f198616915b82811015620001bf578886015182559484019460019091019084016200019e565b5085821015620001de5787850151600019600388901b60f8161c191681555b5050505050600190811b01905550565b61239080620001fe6000396000f3fe6080604052600436106101f95760003560e01c806370a082311161010d578063b384abef116100a0578063d95c2e7d1161006f578063d95c2e7d146105f5578063dd62ed3e14610615578063e3d7ed1314610635578063ef36bbde14610663578063f99318551461069057600080fd5b8063b384abef14610598578063b9c36209146105b8578063cd2ee0c8146105d8578063ce6696ba146105ed57600080fd5b8063a457c2d7116100dc578063a457c2d71461050a578063a4c3acdb1461052a578063a694fc3a14610558578063a9059cbb1461057857600080fd5b806370a082311461047f57806395d89b41146104b55780639b93cb50146104ca5780639c7ebe93146104ea57600080fd5b80632d89edf311610190578063481c6a751161015f578063481c6a75146103e75780634e71d92d1461041f57806356a89c55146104345780635d3eea91146104495780636f13ab001461046957600080fd5b80632d89edf314610333578063313ce56714610373578063395093511461038f57806346aafa3b146103af57600080fd5b806318160ddd116101cc57806318160ddd146102ba57806323b872dd146102cf57806325b56120146102ef57806327db2f711461031157600080fd5b8063013cf08b146101fe57806306fdde031461023a578063095ea7b31461025c57806313cc57241461028c575b600080fd5b34801561020a57600080fd5b5061021e610219366004611b9b565b6106bd565b6040516102319796959493929190611c32565b60405180910390f35b34801561024657600080fd5b5061024f610791565b6040516102319190611c8a565b34801561026857600080fd5b5061027c610277366004611cc0565b610823565b6040519015158152602001610231565b34801561029857600080fd5b506102ac6102a7366004611b9b565b61083d565b604051908152602001610231565b3480156102c657600080fd5b506002546102ac565b3480156102db57600080fd5b5061027c6102ea366004611cea565b61084a565b3480156102fb57600080fd5b5061030f61030a366004611d26565b61086e565b005b34801561031d57600080fd5b50336000908152602081905260409020546102ac565b34801561033f57600080fd5b5061036661034e366004611b9b565b60009081526007602052604090206004015460ff1690565b6040516102319190611d48565b34801561037f57600080fd5b5060405160128152602001610231565b34801561039b57600080fd5b5061027c6103aa366004611cc0565b610931565b3480156103bb57600080fd5b506102ac6103ca366004611cc0565b600860209081526000928352604080842090915290825290205481565b3480156103f357600080fd5b50600554610407906001600160a01b031681565b6040516001600160a01b039091168152602001610231565b34801561042b57600080fd5b5061030f610953565b34801561044057600080fd5b5061030f610a1e565b34801561045557600080fd5b5061030f610464366004611b9b565b610a84565b34801561047557600080fd5b506102ac60065481565b34801561048b57600080fd5b506102ac61049a366004611d56565b6001600160a01b031660009081526020819052604090205490565b3480156104c157600080fd5b5061024f610b18565b3480156104d657600080fd5b5061024f6104e5366004611b9b565b610b27565b3480156104f657600080fd5b506102ac610505366004611b9b565b610c65565b34801561051657600080fd5b5061027c610525366004611cc0565b610ca3565b34801561053657600080fd5b5061054a610545366004611b9b565b610d1e565b604051610231929190611d71565b34801561056457600080fd5b5061030f610573366004611b9b565b610df0565b34801561058457600080fd5b5061027c610593366004611cc0565b610e7a565b3480156105a457600080fd5b5061030f6105b3366004611d92565b610e88565b3480156105c457600080fd5b5061030f6105d3366004611d92565b611181565b3480156105e457600080fd5b506102ac6111fd565b61030f61123b565b34801561060157600080fd5b506102ac610610366004611e6b565b61129c565b34801561062157600080fd5b506102ac610630366004611f52565b6114e5565b34801561064157600080fd5b50610655610650366004611b9b565b611510565b604051610231929190611f85565b34801561066f57600080fd5b506102ac61067e366004611d56565b600a6020526000908152604090205481565b34801561069c57600080fd5b506102ac6106ab366004611d56565b60096020526000908152604090205481565b6007602052600090815260409020805481906106d890611ff7565b80601f016020809104026020016040519081016040528092919081815260200182805461070490611ff7565b80156107515780601f1061072657610100808354040283529160200191610751565b820191906000526020600020905b81548152906001019060200180831161073457829003601f168201915b5050506002840154600385015460048601546005870154600788015460089098015496976001600160a01b039094169692955060ff918216945092911687565b6060600380546107a090611ff7565b80601f01602080910402602001604051908101604052809291908181526020018280546107cc90611ff7565b80156108195780601f106107ee57610100808354040283529160200191610819565b820191906000526020600020905b8154815290600101906020018083116107fc57829003601f168201915b5050505050905090565b600033610831818585611691565b60019150505b92915050565b600061083760648361205d565b6000336108588582856117b5565b61086385858561182f565b506001949350505050565b6005546001600160a01b031633146108a15760405162461bcd60e51b815260040161089890612071565b60405180910390fd5b6000818152600760205260409020600401805483919060ff191660018360028111156108cf576108cf611bfa565b021790555060028260028111156108e8576108e8611bfa565b14801561090b575060008181526007602052604090206003810154600590910154115b1561092d576000818152600760205260409020600801805460ff191660011790555b5050565b60003361083181858561094483836114e5565b61094e91906120a8565b611691565b336000908152600960205260409020546109af5760405162461bcd60e51b815260206004820152601a60248201527f6e6f207374616b65732e6e6f7468696e6720746f20636c61696d0000000000006044820152606401610898565b336000908152600960205260408120544291906109ce906032906120bb565b336000908152600a6020526040902054603c906109eb90856120cf565b6109f591906120bb565b6109ff91906120a8565b9050610a0b33826119d3565b50336000908152600a6020526040902055565b6005546001600160a01b03163314610a485760405162461bcd60e51b815260040161089890612071565b6005546040516001600160a01b03909116904780156108fc02916000818181858888f19350505050158015610a81573d6000803e3d6000fd5b50565b33600090815260096020526040902054811115610ad55760405162461bcd60e51b815260206004820152600f60248201526e7374616b657320617265206c65737360881b6044820152606401610898565b610add610953565b3360009081526009602052604081208054839290610afc9084906120cf565b9091555050600554610a81906001600160a01b0316338361182f565b6060600480546107a090611ff7565b6060600260008381526007602052604090206004015460ff166002811115610b5157610b51611bfa565b14610b9e5760405162461bcd60e51b815260206004820152601b60248201527f766f74696e67206861736e277420636f6d706c657465642079657400000000006044820152606401610898565b600082815260076020819052604090912090810154600190910180549091908110610bcb57610bcb6120e2565b906000526020600020018054610be090611ff7565b80601f0160208091040260200160405190810160405280929190818152602001828054610c0c90611ff7565b8015610c595780601f10610c2e57610100808354040283529160200191610c59565b820191906000526020600020905b815481529060010190602001808311610c3c57829003601f168201915b50505050509050919050565b336000908152600860209081526040808320848452909152812054600290610c8e9060016120a8565b610c9891906121dc565b6108379060326121eb565b60003381610cb182866114e5565b905083811015610d115760405162461bcd60e51b815260206004820152602560248201527f45524332303a2064656372656173656420616c6c6f77616e63652062656c6f77604482015264207a65726f60d81b6064820152608401610898565b6108638286868403611691565b600081815260076020819052604082206005810154918101546001909101805460609392908110610d5157610d516120e2565b90600052602060002001808054610d6790611ff7565b80601f0160208091040260200160405190810160405280929190818152602001828054610d9390611ff7565b8015610de05780601f10610db557610100808354040283529160200191610de0565b820191906000526020600020905b815481529060010190602001808311610dc357829003601f168201915b5050505050905091509150915091565b33600090815260208190526040902054811115610e0c57600080fd5b3360009081526009602052604090205415610e2957610e29610953565b600554610e419033906001600160a01b03168361182f565b3360009081526009602052604081208054839290610e609084906120a8565b9091555050336000908152600a6020526040902042905550565b60003361083181858561182f565b6006548211158015610e9a5750600082115b610ed85760405162461bcd60e51b815260206004820152600f60248201526e1a5b9d985b1a59081c1bdb1b081251608a1b6044820152606401610898565b6000610ee383610c65565b6000848152600760205260409020600201549091506001600160a01b03163303610f4f5760405162461bcd60e51b815260206004820152601f60248201527f796f752063616e277420766f7465206f6e20796f7572206f776e20706f6c6c006044820152606401610898565b600083815260076020526040902060030154610fad5760405162461bcd60e51b815260206004820152601760248201527f5468726573686f6c642069736e277420736574207965740000000000000000006044820152606401610898565b600160008481526007602052604090206004015460ff166002811115610fd557610fd5611bfa565b146110225760405162461bcd60e51b815260206004820152601860248201527f566f74696e672069736e277420696e2070726f677265737300000000000000006044820152606401610898565b336000908152602081905260409020548111156110745760405162461bcd60e51b815260206004820152601060248201526f696e73756666696369656e742044414f60801b6044820152606401610898565b336000908152600860209081526040808320868452909152812080549161109a83612202565b909155505060008381526007602052604090206006018054839081106110c2576110c26120e2565b600091825260208220018054916110d883612202565b9091555050600083815260076020526040902060058101546006909101805484908110611107576111076120e2565b9060005260206000200154111561116457600083815260076020526040902060060180548390811061113b5761113b6120e2565b600091825260208083209091015485835260079182905260409092206005810192909255018290555b60055461117c9033906001600160a01b03168361182f565b505050565b6005546001600160a01b031633146111ab5760405162461bcd60e51b815260040161089890612071565b60008281526007602090815260409182902060030183905581518481529081018390527f71163fade43780aaa187e6cbb8c027121c97cc33677892663953107827f73cc0910160405180910390a15050565b6005546000906001600160a01b0316331461122a5760405162461bcd60e51b815260040161089890612071565b506005546001600160a01b03163190565b600061124f670de0b6b3a76400003461205d565b61125a9060646121eb565b905061126633826119d3565b6040518181527f2d73649f1393ea75df45046ccd2d46c3fe316cc7b4c4df6702e79c6b333ae04e9060200160405180910390a150565b33600090815260208190526040812054601911156112ef5760405162461bcd60e51b815260206004820152601060248201526f696e73756666696369656e742044414f60801b6044820152606401610898565b6005546113089033906001600160a01b0316601961182f565b6006805490600061131883612202565b9190505550604051806101200160405280848152602001838152602001336001600160a01b03168152602001600081526020016000600281111561135e5761135e611bfa565b815260200160008152602001835167ffffffffffffffff81111561138457611384611db4565b6040519080825280602002602001820160405280156113ad578160200160208202803683370190505b50815260006020808301829052604092830182905260065482526007905220815181906113da9082612269565b5060208281015180516113f39260018501920190611a92565b506040820151600282810180546001600160a01b0319166001600160a01b03909316929092179091556060830151600383015560808301516004830180549192909160ff191690600190849081111561144e5761144e611bfa565b021790555060a0820151600582015560c08201518051611478916006840191602090910190611ae8565b5060e08201516007820155610100909101516008909101805460ff19169115159190911790556006546040517f6f230f76c01c0302945bd6dea3feb5e915ad4d055584b0a41a7083ca87786d25916114d39186903390612329565b60405180910390a15060065492915050565b6001600160a01b03918216600090815260016020908152604080832093909416825291909152205490565b6000818152600760205260409020805460609182916001820190829061153590611ff7565b80601f016020809104026020016040519081016040528092919081815260200182805461156190611ff7565b80156115ae5780601f10611583576101008083540402835291602001916115ae565b820191906000526020600020905b81548152906001019060200180831161159157829003601f168201915b5050505050915080805480602002602001604051908101604052809291908181526020016000905b828210156116825783829060005260206000200180546115f590611ff7565b80601f016020809104026020016040519081016040528092919081815260200182805461162190611ff7565b801561166e5780601f106116435761010080835404028352916020019161166e565b820191906000526020600020905b81548152906001019060200180831161165157829003601f168201915b5050505050815260200190600101906115d6565b50505050905091509150915091565b6001600160a01b0383166116f35760405162461bcd60e51b8152602060048201526024808201527f45524332303a20617070726f76652066726f6d20746865207a65726f206164646044820152637265737360e01b6064820152608401610898565b6001600160a01b0382166117545760405162461bcd60e51b815260206004820152602260248201527f45524332303a20617070726f766520746f20746865207a65726f206164647265604482015261737360f01b6064820152608401610898565b6001600160a01b0383811660008181526001602090815260408083209487168084529482529182902085905590518481527f8c5be1e5ebec7d5bd14f71427d1e84f3dd0314c0f7b2291e5b200ac8c7c3b925910160405180910390a3505050565b60006117c184846114e5565b90506000198114611829578181101561181c5760405162461bcd60e51b815260206004820152601d60248201527f45524332303a20696e73756666696369656e7420616c6c6f77616e63650000006044820152606401610898565b6118298484848403611691565b50505050565b6001600160a01b0383166118935760405162461bcd60e51b815260206004820152602560248201527f45524332303a207472616e736665722066726f6d20746865207a65726f206164604482015264647265737360d81b6064820152608401610898565b6001600160a01b0382166118f55760405162461bcd60e51b815260206004820152602360248201527f45524332303a207472616e7366657220746f20746865207a65726f206164647260448201526265737360e81b6064820152608401610898565b6001600160a01b0383166000908152602081905260409020548181101561196d5760405162461bcd60e51b815260206004820152602660248201527f45524332303a207472616e7366657220616d6f756e7420657863656564732062604482015265616c616e636560d01b6064820152608401610898565b6001600160a01b03848116600081815260208181526040808320878703905593871680835291849020805487019055925185815290927fddf252ad1be2c89b69c2b068fc378daa952ba7f163c4a11628f55a4df523b3ef910160405180910390a3611829565b6001600160a01b038216611a295760405162461bcd60e51b815260206004820152601f60248201527f45524332303a206d696e7420746f20746865207a65726f2061646472657373006044820152606401610898565b8060026000828254611a3b91906120a8565b90915550506001600160a01b038216600081815260208181526040808320805486019055518481527fddf252ad1be2c89b69c2b068fc378daa952ba7f163c4a11628f55a4df523b3ef910160405180910390a35050565b828054828255906000526020600020908101928215611ad8579160200282015b82811115611ad85782518290611ac89082612269565b5091602001919060010190611ab2565b50611ae4929150611b2f565b5090565b828054828255906000526020600020908101928215611b23579160200282015b82811115611b23578251825591602001919060010190611b08565b50611ae4929150611b4c565b80821115611ae4576000611b438282611b61565b50600101611b2f565b5b80821115611ae45760008155600101611b4d565b508054611b6d90611ff7565b6000825580601f10611b7d575050565b601f016020900490600052602060002090810190610a819190611b4c565b600060208284031215611bad57600080fd5b5035919050565b6000815180845260005b81811015611bda57602081850181015186830182015201611bbe565b506000602082860101526020601f19601f83011685010191505092915050565b634e487b7160e01b600052602160045260246000fd5b60038110611c2e57634e487b7160e01b600052602160045260246000fd5b9052565b60e081526000611c4560e083018a611bb4565b6001600160a01b0389166020840152604083018890529050611c6a6060830187611c10565b8460808301528360a083015282151560c083015298975050505050505050565b602081526000611c9d6020830184611bb4565b9392505050565b80356001600160a01b0381168114611cbb57600080fd5b919050565b60008060408385031215611cd357600080fd5b611cdc83611ca4565b946020939093013593505050565b600080600060608486031215611cff57600080fd5b611d0884611ca4565b9250611d1660208501611ca4565b9150604084013590509250925092565b60008060408385031215611d3957600080fd5b823560038110611cdc57600080fd5b602081016108378284611c10565b600060208284031215611d6857600080fd5b611c9d82611ca4565b828152604060208201526000611d8a6040830184611bb4565b949350505050565b60008060408385031215611da557600080fd5b50508035926020909101359150565b634e487b7160e01b600052604160045260246000fd5b604051601f8201601f1916810167ffffffffffffffff81118282101715611df357611df3611db4565b604052919050565b600082601f830112611e0c57600080fd5b813567ffffffffffffffff811115611e2657611e26611db4565b611e39601f8201601f1916602001611dca565b818152846020838601011115611e4e57600080fd5b816020850160208301376000918101602001919091529392505050565b60008060408385031215611e7e57600080fd5b823567ffffffffffffffff80821115611e9657600080fd5b611ea286838701611dfb565b9350602091508185013581811115611eb957600080fd5b8501601f81018713611eca57600080fd5b803582811115611edc57611edc611db4565b8060051b611eeb858201611dca565b918252828101850191858101908a841115611f0557600080fd5b86850192505b83831015611f4157823586811115611f235760008081fd5b611f318c8983890101611dfb565b8352509186019190860190611f0b565b809750505050505050509250929050565b60008060408385031215611f6557600080fd5b611f6e83611ca4565b9150611f7c60208401611ca4565b90509250929050565b604081526000611f986040830185611bb4565b6020838203818501528185518084528284019150828160051b85010183880160005b83811015611fe857601f19878403018552611fd6838351611bb4565b94860194925090850190600101611fba565b50909998505050505050505050565b600181811c9082168061200b57607f821691505b60208210810361202b57634e487b7160e01b600052602260045260246000fd5b50919050565b634e487b7160e01b600052601260045260246000fd5b634e487b7160e01b600052601160045260246000fd5b60008261206c5761206c612031565b500490565b60208082526019908201527f4f6e6c7920746865206d616e616765722063616e2063616c6c00000000000000604082015260600190565b8082018082111561083757610837612047565b6000826120ca576120ca612031565b500690565b8181038181111561083757610837612047565b634e487b7160e01b600052603260045260246000fd5b600181815b8085111561213357816000190482111561211957612119612047565b8085161561212657918102915b93841c93908002906120fd565b509250929050565b60008261214a57506001610837565b8161215757506000610837565b816001811461216d576002811461217757612193565b6001915050610837565b60ff84111561218857612188612047565b50506001821b610837565b5060208310610133831016604e8410600b84101617156121b6575081810a610837565b6121c083836120f8565b80600019048211156121d4576121d4612047565b029392505050565b6000611c9d60ff84168361213b565b808202811582820484141761083757610837612047565b60006001820161221457612214612047565b5060010190565b601f82111561117c57600081815260208120601f850160051c810160208610156122425750805b601f850160051c820191505b818110156122615782815560010161224e565b505050505050565b815167ffffffffffffffff81111561228357612283611db4565b612297816122918454611ff7565b8461221b565b602080601f8311600181146122cc57600084156122b45750858301515b600019600386901b1c1916600185901b178555612261565b600085815260208120601f198616915b828110156122fb578886015182559484019460019091019084016122dc565b50858210156123195787850151600019600388901b60f8161c191681555b5050505050600190811b01905550565b8381526060602082015260006123426060830185611bb4565b905060018060a01b038316604083015294935050505056fea26469706673582212207c03492bb27fecb78b5defc1913914ea13065fbb149bff492503e10ebdf2fddf64736f6c63430008150033446563656e7472616c697a65644175746f6e6f6d6f75734f7267616e697a6174696f6e",
    "linkReferences": {}
  },
  "methodIdentifiers": {
    "allowance(address,address)": "dd62ed3e",
    "approve(address,uint256)": "095ea7b3",
    "balanceOf(address)": "70a08231",
    "changeVotingState(uint8,uint256)": "25b56120",
    "checkDAOtokenBalance()": "27db2f71",
    "checkFinalResult(uint256)": "9b93cb50",
    "checkLiveVoteCount(uint256)": "a4c3acdb",
    "checkManagerEthBalance()": "cd2ee0c8",
    "checkProposalDetails(uint256)": "e3d7ed13",
    "checkTokensCostInEther(uint256)": "13cc5724",
    "checkVoteCost(uint256)": "9c7ebe93",
    "checkVotingStatus(uint256)": "2d89edf3",
    "claim()": "4e71d92d",
    "decimals()": "313ce567",
    "decreaseAllowance(address,uint256)": "a457c2d7",
    "increaseAllowance(address,uint256)": "39509351",
    "manager()": "481c6a75",
    "name()": "06fdde03",
    "newProposal(string,string[])": "d95c2e7d",
    "pollId()": "6f13ab00",
    "proposals(uint256)": "013cf08b",
    "purchaseDAOtokens()": "ce6696ba",
    "setThreshold(uint256,uint256)": "b9c36209",
    "stake(uint256)": "a694fc3a",
    "stakedAmount(address)": "f9931855",
    "stakedAt(address)": "ef36bbde",
    "symbol()": "95d89b41",
    "totalSupply()": "18160ddd",
    "transfer(address,uint256)": "a9059cbb",
    "transferEthToManager()": "56a89c55",
    "transferFrom(address,address,uint256)": "23b872dd",
    "unStake(uint256)": "5d3eea91",
    "vote(uint256,uint256)": "b384abef",
    "votesCast(address,uint256)": "46aafa3b"
  },
  "id": 0
}