{
  "abi": [
    {
      "inputs": [],
      "stateMutability": "nonpayable",
      "type": "constructor"
    },
    {
      "anonymous": false,
      "inputs": [
        {
          "indexed": true,
          "internalType": "address",
          "name": "owner",
          "type": "address"
        },
        {
          "indexed": true,
          "internalType": "address",
          "name": "spender",
          "type": "address"
        },
        {
          "indexed": false,
          "internalType": "uint256",
          "name": "value",
          "type": "uint256"
        }
      ],
      "name": "Approval",
      "type": "event"
    },
    {
      "anonymous": false,
      "inputs": [
        {
          "indexed": true,
          "internalType": "address",
          "name": "from",
          "type": "address"
        },
        {
          "indexed": true,
          "internalType": "address",
          "name": "to",
          "type": "address"
        },
        {
          "indexed": false,
          "internalType": "uint256",
          "name": "value",
          "type": "uint256"
        }
      ],
      "name": "Transfer",
      "type": "event"
    },
    {
      "anonymous": false,
      "inputs": [
        {
          "indexed": false,
          "internalType": "uint256",
          "name": "pollId",
          "type": "uint256"
        },
        {
          "indexed": false,
          "internalType": "string",
          "name": "proposal",
          "type": "string"
        },
        {
          "indexed": false,
          "internalType": "address",
          "name": "proposer",
          "type": "address"
        }
      ],
      "name": "newProposalDetails",
      "type": "event"
    },
    {
      "anonymous": false,
      "inputs": [
        {
          "indexed": false,
          "internalType": "uint256",
          "name": "pollId",
          "type": "uint256"
        },
        {
          "indexed": false,
          "internalType": "uint256",
          "name": "threshold",
          "type": "uint256"
        }
      ],
      "name": "thresholdSet",
      "type": "event"
    },
    {
      "anonymous": false,
      "inputs": [
        {
          "indexed": false,
          "internalType": "uint256",
          "name": "tokensPurchased",
          "type": "uint256"
        }
      ],
      "name": "tokensPurchased",
      "type": "event"
    },
    {
      "inputs": [
        {
          "internalType": "address",
          "name": "owner",
          "type": "address"
        },
        {
          "internalType": "address",
          "name": "spender",
          "type": "address"
        }
      ],
      "name": "allowance",
      "outputs": [
        {
          "internalType": "uint256",
          "name": "",
          "type": "uint256"
        }
      ],
      "stateMutability": "view",
      "type": "function"
    },
    {
      "inputs": [
        {
          "internalType": "address",
          "name": "spender",
          "type": "address"
        },
        {
          "internalType": "uint256",
          "name": "amount",
          "type": "uint256"
        }
      ],
      "name": "approve",
      "outputs": [
        {
          "internalType": "bool",
          "name": "",
          "type": "bool"
        }
      ],
      "stateMutability": "nonpayable",
      "type": "function"
    },
    {
      "inputs": [
        {
          "internalType": "address",
          "name": "account",
          "type": "address"
        }
      ],
      "name": "balanceOf",
      "outputs": [
        {
          "internalType": "uint256",
          "name": "",
          "type": "uint256"
        }
      ],
      "stateMutability": "view",
      "type": "function"
    },
    {
      "inputs": [
        {
          "internalType": "enum DAO.VotingStatus",
          "name": "status",
          "type": "uint8"
        },
        {
          "internalType": "uint256",
          "name": "_pollId",
          "type": "uint256"
        }
      ],
      "name": "changeVotingState",
      "outputs": [],
      "stateMutability": "nonpayable",
      "type": "function"
    },
    {
      "inputs": [],
      "name": "checkDAOtokenBalance",
      "outputs": [
        {
          "internalType": "uint256",
          "name": "",
          "type": "uint256"
        }
      ],
      "stateMutability": "view",
      "type": "function"
    },
    {
      "inputs": [
        {
          "internalType": "address",
          "name": "delegator",
          "type": "address"
        }
      ],
      "name": "checkDelegatorsBalance",
      "outputs": [
        {
          "internalType": "uint256",
          "name": "",
          "type": "uint256"
        }
      ],
      "stateMutability": "view",
      "type": "function"
    },
    {
      "inputs": [
        {
          "internalType": "uint256",
          "name": "_pollId",
          "type": "uint256"
        }
      ],
      "name": "checkFinalResult",
      "outputs": [
        {
          "internalType": "string",
          "name": "",
          "type": "string"
        }
      ],
      "stateMutability": "view",
      "type": "function"
    },
    {
      "inputs": [
        {
          "internalType": "uint256",
          "name": "_pollId",
          "type": "uint256"
        }
      ],
      "name": "checkLiveVoteCount",
      "outputs": [
        {
          "internalType": "uint256",
          "name": "",
          "type": "uint256"
        },
        {
          "internalType": "string",
          "name": "",
          "type": "string"
        }
      ],
      "stateMutability": "view",
      "type": "function"
    },
    {
      "inputs": [],
      "name": "checkManagerEthBalance",
      "outputs": [
        {
          "internalType": "uint256",
          "name": "",
          "type": "uint256"
        }
      ],
      "stateMutability": "view",
      "type": "function"
    },
    {
      "inputs": [
        {
          "internalType": "uint256",
          "name": "_pollId",
          "type": "uint256"
        }
      ],
      "name": "checkPollResult",
      "outputs": [
        {
          "internalType": "bool",
          "name": "",
          "type": "bool"
        }
      ],
      "stateMutability": "view",
      "type": "function"
    },
    {
      "inputs": [
        {
          "internalType": "uint256",
          "name": "_pollId",
          "type": "uint256"
        }
      ],
      "name": "checkProposalDetails",
      "outputs": [
        {
          "internalType": "string",
          "name": "",
          "type": "string"
        },
        {
          "internalType": "string[]",
          "name": "",
          "type": "string[]"
        }
      ],
      "stateMutability": "view",
      "type": "function"
    },
    {
      "inputs": [
        {
          "internalType": "uint256",
          "name": "tokens",
          "type": "uint256"
        }
      ],
      "name": "checkTokensCostInEther",
      "outputs": [
        {
          "internalType": "uint256",
          "name": "",
          "type": "uint256"
        }
      ],
      "stateMutability": "pure",
      "type": "function"
    },
    {
      "inputs": [
        {
          "internalType": "uint256",
          "name": "_pollId",
          "type": "uint256"
        }
      ],
      "name": "checkVoteCost",
      "outputs": [
        {
          "internalType": "uint256",
          "name": "",
          "type": "uint256"
        }
      ],
      "stateMutability": "view",
      "type": "function"
    },
    {
      "inputs": [
        {
          "internalType": "uint256",
          "name": "_pollId",
          "type": "uint256"
        }
      ],
      "name": "checkVotingStatus",
      "outputs": [
        {
          "internalType": "enum DAO.VotingStatus",
          "name": "",
          "type": "uint8"
        }
      ],
      "stateMutability": "view",
      "type": "function"
    },
    {
      "inputs": [],
      "name": "claim",
      "outputs": [],
      "stateMutability": "nonpayable",
      "type": "function"
    },
    {
      "inputs": [],
      "name": "decimals",
      "outputs": [
        {
          "internalType": "uint8",
          "name": "",
          "type": "uint8"
        }
      ],
      "stateMutability": "view",
      "type": "function"
    },
    {
      "inputs": [
        {
          "internalType": "address",
          "name": "spender",
          "type": "address"
        },
        {
          "internalType": "uint256",
          "name": "subtractedValue",
          "type": "uint256"
        }
      ],
      "name": "decreaseAllowance",
      "outputs": [
        {
          "internalType": "bool",
          "name": "",
          "type": "bool"
        }
      ],
      "stateMutability": "nonpayable",
      "type": "function"
    },
    {
      "inputs": [
        {
          "internalType": "address",
          "name": "delegate",
          "type": "address"
        }
      ],
      "name": "delegation",
      "outputs": [],
      "stateMutability": "nonpayable",
      "type": "function"
    },
    {
      "inputs": [
        {
          "internalType": "address",
          "name": "spender",
          "type": "address"
        },
        {
          "internalType": "uint256",
          "name": "addedValue",
          "type": "uint256"
        }
      ],
      "name": "increaseAllowance",
      "outputs": [
        {
          "internalType": "bool",
          "name": "",
          "type": "bool"
        }
      ],
      "stateMutability": "nonpayable",
      "type": "function"
    },
    {
      "inputs": [],
      "name": "manager",
      "outputs": [
        {
          "internalType": "address payable",
          "name": "",
          "type": "address"
        }
      ],
      "stateMutability": "view",
      "type": "function"
    },
    {
      "inputs": [],
      "name": "name",
      "outputs": [
        {
          "internalType": "string",
          "name": "",
          "type": "string"
        }
      ],
      "stateMutability": "view",
      "type": "function"
    },
    {
      "inputs": [
        {
          "internalType": "string",
          "name": "proposal",
          "type": "string"
        },
        {
          "internalType": "string[]",
          "name": "options",
          "type": "string[]"
        }
      ],
      "name": "newProposal",
      "outputs": [
        {
          "internalType": "uint256",
          "name": "",
          "type": "uint256"
        }
      ],
      "stateMutability": "nonpayable",
      "type": "function"
    },
    {
      "inputs": [],
      "name": "pollId",
      "outputs": [
        {
          "internalType": "uint256",
          "name": "",
          "type": "uint256"
        }
      ],
      "stateMutability": "view",
      "type": "function"
    },
    {
      "inputs": [
        {
          "internalType": "uint256",
          "name": "",
          "type": "uint256"
        }
      ],
      "name": "proposals",
      "outputs": [
        {
          "internalType": "string",
          "name": "proposal",
          "type": "string"
        },
        {
          "internalType": "address",
          "name": "proposer",
          "type": "address"
        },
        {
          "internalType": "uint256",
          "name": "threshold",
          "type": "uint256"
        },
        {
          "internalType": "enum DAO.VotingStatus",
          "name": "votingStatus",
          "type": "uint8"
        },
        {
          "internalType": "uint256",
          "name": "highestValue",
          "type": "uint256"
        },
        {
          "internalType": "uint256",
          "name": "winningOption",
          "type": "uint256"
        },
        {
          "internalType": "bool",
          "name": "result",
          "type": "bool"
        }
      ],
      "stateMutability": "view",
      "type": "function"
    },
    {
      "inputs": [],
      "name": "purchaseDAOtokens",
      "outputs": [],
      "stateMutability": "payable",
      "type": "function"
    },
    {
      "inputs": [
        {
          "internalType": "uint256",
          "name": "_pollId",
          "type": "uint256"
        },
        {
          "internalType": "uint256",
          "name": "threshold",
          "type": "uint256"
        }
      ],
      "name": "setThreshold",
      "outputs": [],
      "stateMutability": "nonpayable",
      "type": "function"
    },
    {
      "inputs": [
        {
          "internalType": "uint256",
          "name": "amount",
          "type": "uint256"
        }
      ],
      "name": "stake",
      "outputs": [],
      "stateMutability": "nonpayable",
      "type": "function"
    },
    {
      "inputs": [
        {
          "internalType": "address",
          "name": "",
          "type": "address"
        }
      ],
      "name": "stakedAmount",
      "outputs": [
        {
          "internalType": "uint256",
          "name": "",
          "type": "uint256"
        }
      ],
      "stateMutability": "view",
      "type": "function"
    },
    {
      "inputs": [
        {
          "internalType": "address",
          "name": "",
          "type": "address"
        }
      ],
      "name": "stakedAt",
      "outputs": [
        {
          "internalType": "uint256",
          "name": "",
          "type": "uint256"
        }
      ],
      "stateMutability": "view",
      "type": "function"
    },
    {
      "inputs": [],
      "name": "symbol",
      "outputs": [
        {
          "internalType": "string",
          "name": "",
          "type": "string"
        }
      ],
      "stateMutability": "view",
      "type": "function"
    },
    {
      "inputs": [],
      "name": "totalSupply",
      "outputs": [
        {
          "internalType": "uint256",
          "name": "",
          "type": "uint256"
        }
      ],
      "stateMutability": "view",
      "type": "function"
    },
    {
      "inputs": [
        {
          "internalType": "address",
          "name": "to",
          "type": "address"
        },
        {
          "internalType": "uint256",
          "name": "amount",
          "type": "uint256"
        }
      ],
      "name": "transfer",
      "outputs": [
        {
          "internalType": "bool",
          "name": "",
          "type": "bool"
        }
      ],
      "stateMutability": "nonpayable",
      "type": "function"
    },
    {
      "inputs": [],
      "name": "transferEthToManager",
      "outputs": [],
      "stateMutability": "nonpayable",
      "type": "function"
    },
    {
      "inputs": [
        {
          "internalType": "address",
          "name": "from",
          "type": "address"
        },
        {
          "internalType": "address",
          "name": "to",
          "type": "address"
        },
        {
          "internalType": "uint256",
          "name": "amount",
          "type": "uint256"
        }
      ],
      "name": "transferFrom",
      "outputs": [
        {
          "internalType": "bool",
          "name": "",
          "type": "bool"
        }
      ],
      "stateMutability": "nonpayable",
      "type": "function"
    },
    {
      "inputs": [
        {
          "internalType": "uint256",
          "name": "amount",
          "type": "uint256"
        }
      ],
      "name": "unStake",
      "outputs": [],
      "stateMutability": "nonpayable",
      "type": "function"
    },
    {
      "inputs": [
        {
          "internalType": "uint256",
          "name": "_pollId",
          "type": "uint256"
        },
        {
          "internalType": "uint256",
          "name": "option",
          "type": "uint256"
        },
        {
          "internalType": "address",
          "name": "delegator",
          "type": "address"
        }
      ],
      "name": "vote",
      "outputs": [],
      "stateMutability": "nonpayable",
      "type": "function"
    },
    {
      "inputs": [
        {
          "internalType": "uint256",
          "name": "_pollId",
          "type": "uint256"
        },
        {
          "internalType": "uint256",
          "name": "option",
          "type": "uint256"
        }
      ],
      "name": "vote",
      "outputs": [],
      "stateMutability": "nonpayable",
      "type": "function"
    },
    {
      "inputs": [
        {
          "internalType": "address",
          "name": "",
          "type": "address"
        },
        {
          "internalType": "uint256",
          "name": "",
          "type": "uint256"
        }
      ],
      "name": "votesCast",
      "outputs": [
        {
          "internalType": "uint256",
          "name": "",
          "type": "uint256"
        }
      ],
      "stateMutability": "view",
      "type": "function"
    }
  ],
  "bytecode": {
    "object": "0x60806040523480156200001157600080fd5b5060405180606001604052806023815260200162002b76602391396040805180820190915260038082526244414f60e81b602083015262000053838262000122565b50600462000062828262000122565b5050600580546001600160a01b0319163317905550620001ee565b634e487b7160e01b600052604160045260246000fd5b600181811c90821680620000a857607f821691505b602082108103620000c957634e487b7160e01b600052602260045260246000fd5b50919050565b601f8211156200011d57600081815260208120601f850160051c81016020861015620000f85750805b601f850160051c820191505b81811015620001195782815560010162000104565b5050505b505050565b81516001600160401b038111156200013e576200013e6200007d565b62000156816200014f845462000093565b84620000cf565b602080601f8311600181146200018e5760008415620001755750858301515b600019600386901b1c1916600185901b17855562000119565b600085815260208120601f198616915b82811015620001bf578886015182559484019460019091019084016200019e565b5085821015620001de5787850151600019600388901b60f8161c191681555b5050505050600190811b01905550565b61297880620001fe6000396000f3fe6080604052600436106102255760003560e01c806370a0823111610123578063b384abef116100ab578063dd62ed3e1161006f578063dd62ed3e1461067e578063e3d7ed131461069e578063eed50a32146106cc578063ef36bbde14610718578063f99318551461074557600080fd5b8063b384abef14610601578063b9c3620914610621578063cd2ee0c814610641578063ce6696ba14610656578063d95c2e7d1461065e57600080fd5b80639c7ebe93116100f25780639c7ebe9314610553578063a457c2d714610573578063a4c3acdb14610593578063a694fc3a146105c1578063a9059cbb146105e157600080fd5b806370a08231146104de5780638707911d146104fe57806395d89b411461051e5780639b93cb501461053357600080fd5b8063313ce567116101b15780634e71d92d116101755780634e71d92d1461045e57806350d915831461047357806356a89c55146104935780635d3eea91146104a85780636f13ab00146104c857600080fd5b8063313ce56714610392578063328f624c146103ae57806339509351146103ce57806346aafa3b146103ee578063481c6a751461042657600080fd5b806318160ddd116101f857806318160ddd146102e657806323b872dd146102fb57806325b561201461031b57806327db2f711461033d5780632d89edf31461035257600080fd5b8063013cf08b1461022a57806306fdde0314610266578063095ea7b31461028857806313cc5724146102b8575b600080fd5b34801561023657600080fd5b5061024a610245366004612140565b610772565b60405161025d97969594939291906121d7565b60405180910390f35b34801561027257600080fd5b5061027b610846565b60405161025d919061222f565b34801561029457600080fd5b506102a86102a3366004612265565b6108d8565b604051901515815260200161025d565b3480156102c457600080fd5b506102d86102d3366004612140565b6108f2565b60405190815260200161025d565b3480156102f257600080fd5b506002546102d8565b34801561030757600080fd5b506102a861031636600461228f565b6108ff565b34801561032757600080fd5b5061033b6103363660046122cb565b610923565b005b34801561034957600080fd5b506102d86109e6565b34801561035e57600080fd5b5061038561036d366004612140565b60009081526007602052604090206004015460ff1690565b60405161025d91906122ed565b34801561039e57600080fd5b506040516012815260200161025d565b3480156103ba57600080fd5b506102d86103c93660046122fb565b6109f6565b3480156103da57600080fd5b506102a86103e9366004612265565b610a6e565b3480156103fa57600080fd5b506102d8610409366004612265565b600860209081526000928352604080842090915290825290205481565b34801561043257600080fd5b50600554610446906001600160a01b031681565b6040516001600160a01b03909116815260200161025d565b34801561046a57600080fd5b5061033b610a90565b34801561047f57600080fd5b5061033b61048e366004612316565b610b65565b34801561049f57600080fd5b5061033b610ece565b3480156104b457600080fd5b5061033b6104c3366004612140565b610f34565b3480156104d457600080fd5b506102d860065481565b3480156104ea57600080fd5b506102d86104f93660046122fb565b610ff1565b34801561050a57600080fd5b506102a8610519366004612140565b61100c565b34801561052a57600080fd5b5061027b61109c565b34801561053f57600080fd5b5061027b61054e366004612140565b6110ab565b34801561055f57600080fd5b506102d861056e366004612140565b6111e9565b34801561057f57600080fd5b506102a861058e366004612265565b611227565b34801561059f57600080fd5b506105b36105ae366004612140565b6112a2565b60405161025d92919061234b565b3480156105cd57600080fd5b5061033b6105dc366004612140565b6113ec565b3480156105ed57600080fd5b506102a86105fc366004612265565b611482565b34801561060d57600080fd5b5061033b61061c36600461236c565b611490565b34801561062d57600080fd5b5061033b61063c36600461236c565b611754565b34801561064d57600080fd5b506102d86117d0565b61033b61180e565b34801561066a57600080fd5b506102d8610679366004612445565b61186f565b34801561068a57600080fd5b506102d861069936600461252c565b611a90565b3480156106aa57600080fd5b506106be6106b9366004612140565b611abb565b60405161025d92919061255f565b3480156106d857600080fd5b5061033b6106e73660046122fb565b336000908152600b602090815260408083206001600160a01b0394909416835292905220805460ff19166001179055565b34801561072457600080fd5b506102d86107333660046122fb565b600a6020526000908152604090205481565b34801561075157600080fd5b506102d86107603660046122fb565b60096020526000908152604090205481565b60076020526000908152604090208054819061078d906125d1565b80601f01602080910402602001604051908101604052809291908181526020018280546107b9906125d1565b80156108065780601f106107db57610100808354040283529160200191610806565b820191906000526020600020905b8154815290600101906020018083116107e957829003601f168201915b5050506002840154600385015460048601546005870154600788015460089098015496976001600160a01b039094169692955060ff918216945092911687565b606060038054610855906125d1565b80601f0160208091040260200160405190810160405280929190818152602001828054610881906125d1565b80156108ce5780601f106108a3576101008083540402835291602001916108ce565b820191906000526020600020905b8154815290600101906020018083116108b157829003601f168201915b5050505050905090565b6000336108e6818585611c3c565b60019150505b92915050565b60006108ec606483612621565b60003361090d858285611d60565b610918858585611dd4565b506001949350505050565b6005546001600160a01b031633146109565760405162461bcd60e51b815260040161094d90612643565b60405180910390fd5b6000818152600760205260409020600401805483919060ff191660018360028111156109845761098461219f565b0217905550600282600281111561099d5761099d61219f565b1480156109c0575060008181526007602052604090206003810154600590910154115b156109e2576000818152600760205260409020600801805460ff191660011790555b5050565b60006109f133610ff1565b905090565b6001600160a01b0381166000908152600b6020908152604080832033845290915281205460ff161515600114610a655760405162461bcd60e51b81526020600482015260146024820152731e5bdd48185c995b89dd0819195b1959d85d195960621b604482015260640161094d565b6108ec82610ff1565b6000336108e6818585610a818383611a90565b610a8b919061267a565b611c3c565b33600090815260096020526040902054610af65760405162461bcd60e51b815260206004820152602160248201527f6e6f20746f6b656e73207374616b65642e6e6f7468696e6720746f20636c61696044820152606d60f81b606482015260840161094d565b33600090815260096020526040812054429190610b1590603290612621565b336000908152600a6020526040902054603c90610b32908561268d565b610b3c9190612621565b610b46919061267a565b9050610b523382611f78565b50336000908152600a6020526040902055565b6001600160a01b0381166000908152600b6020908152604080832033845290915290205460ff161515600114610bd65760405162461bcd60e51b81526020600482015260166024820152753cb7ba9030b932b713ba1030903232b632b3b0ba37b960511b604482015260640161094d565b6006548311158015610be85750600083115b610c265760405162461bcd60e51b815260206004820152600f60248201526e1a5b9d985b1a59081c1bdb1b081251608a1b604482015260640161094d565b6000610c31846111e9565b6000858152600760205260409020600201549091506001600160a01b03163314801590610c7b57506000848152600760205260409020600201546001600160a01b03838116911614155b610cc75760405162461bcd60e51b815260206004820152601f60248201527f796f752063616e277420766f7465206f6e20796f7572206f776e20706f6c6c00604482015260640161094d565b600084815260076020526040902060030154610d1f5760405162461bcd60e51b8152602060048201526017602482015276151a1c995cda1bdb19081a5cdb89dd081cd95d081e595d604a1b604482015260640161094d565b600160008581526007602052604090206004015460ff166002811115610d4757610d4761219f565b14610d8f5760405162461bcd60e51b8152602060048201526018602482015277566f74696e672069736e277420696e2070726f677265737360401b604482015260640161094d565b80610d9983610ff1565b1015610db75760405162461bcd60e51b815260040161094d906126a0565b6001600160a01b03821660009081526008602090815260408083208784529091528120805491610de6836126ca565b90915550506000848152600760205260409020600601805484908110610e0e57610e0e6126e3565b60009182526020822001805491610e24836126ca565b9091555050600084815260076020526040902060058101546006909101805485908110610e5357610e536126e3565b90600052602060002001541115610eb0576000848152600760205260409020600601805484908110610e8757610e876126e3565b600091825260208083209091015486835260079182905260409092206005810192909255018390555b600554610ec89083906001600160a01b031683611dd4565b50505050565b6005546001600160a01b03163314610ef85760405162461bcd60e51b815260040161094d90612643565b6005546040516001600160a01b03909116904780156108fc02916000818181858888f19350505050158015610f31573d6000803e3d6000fd5b50565b33600090815260096020526040902054811115610f8c5760405162461bcd60e51b81526020600482015260166024820152751b195cdcc81d1bdad95b9cc8185c99481cdd185ad95960521b604482015260640161094d565b336000908152600a6020526040902054610fa790603c61267a565b421115610fb657610fb6610a90565b3360009081526009602052604081208054839290610fd590849061268d565b9091555050600554610f31906001600160a01b03163383611dd4565b6001600160a01b031660009081526020819052604090205490565b6000600260008381526007602052604090206004015460ff1660028111156110365761103661219f565b146110835760405162461bcd60e51b815260206004820152601b60248201527f766f74696e67206861736e277420636f6d706c65746564207965740000000000604482015260640161094d565b5060009081526007602052604090206008015460ff1690565b606060048054610855906125d1565b6060600260008381526007602052604090206004015460ff1660028111156110d5576110d561219f565b146111225760405162461bcd60e51b815260206004820152601b60248201527f766f74696e67206861736e277420636f6d706c65746564207965740000000000604482015260640161094d565b60008281526007602081905260409091209081015460019091018054909190811061114f5761114f6126e3565b906000526020600020018054611164906125d1565b80601f0160208091040260200160405190810160405280929190818152602001828054611190906125d1565b80156111dd5780601f106111b2576101008083540402835291602001916111dd565b820191906000526020600020905b8154815290600101906020018083116111c057829003601f168201915b50505050509050919050565b33600090815260086020908152604080832084845290915281205460029061121290600161267a565b61121c91906127dd565b6108ec9060326127ec565b600033816112358286611a90565b9050838110156112955760405162461bcd60e51b815260206004820152602560248201527f45524332303a2064656372656173656420616c6c6f77616e63652062656c6f77604482015264207a65726f60d81b606482015260840161094d565b6109188286868403611c3c565b60006060600160008481526007602052604090206004015460ff1660028111156112ce576112ce61219f565b1461131b5760405162461bcd60e51b815260206004820152601860248201527f766f74696e672069736e277420696e2070726f67726573730000000000000000604482015260640161094d565b600083815260076020819052604090912060058101549181015460019091018054909190811061134d5761134d6126e3565b90600052602060002001808054611363906125d1565b80601f016020809104026020016040519081016040528092919081815260200182805461138f906125d1565b80156113dc5780601f106113b1576101008083540402835291602001916113dc565b820191906000526020600020905b8154815290600101906020018083116113bf57829003601f168201915b5050505050905091509150915091565b806113f633610ff1565b10156114145760405162461bcd60e51b815260040161094d906126a0565b336000908152600960205260409020541561143157611431610a90565b6005546114499033906001600160a01b031683611dd4565b336000908152600960205260408120805483929061146890849061267a565b9091555050336000908152600a6020526040902042905550565b6000336108e6818585611dd4565b60065482111580156114a25750600082115b6114e05760405162461bcd60e51b815260206004820152600f60248201526e1a5b9d985b1a59081c1bdb1b081251608a1b604482015260640161094d565b60006114eb836111e9565b6000848152600760205260409020600201549091506001600160a01b031633036115575760405162461bcd60e51b815260206004820152601f60248201527f796f752063616e277420766f7465206f6e20796f7572206f776e20706f6c6c00604482015260640161094d565b6000838152600760205260409020600301546115af5760405162461bcd60e51b8152602060048201526017602482015276151a1c995cda1bdb19081a5cdb89dd081cd95d081e595d604a1b604482015260640161094d565b600160008481526007602052604090206004015460ff1660028111156115d7576115d761219f565b1461161f5760405162461bcd60e51b8152602060048201526018602482015277566f74696e672069736e277420696e2070726f677265737360401b604482015260640161094d565b8061162933610ff1565b10156116475760405162461bcd60e51b815260040161094d906126a0565b336000908152600860209081526040808320868452909152812080549161166d836126ca565b90915550506000838152600760205260409020600601805483908110611695576116956126e3565b600091825260208220018054916116ab836126ca565b90915550506000838152600760205260409020600581015460069091018054849081106116da576116da6126e3565b9060005260206000200154111561173757600083815260076020526040902060060180548390811061170e5761170e6126e3565b600091825260208083209091015485835260079182905260409092206005810192909255018290555b60055461174f9033906001600160a01b031683611dd4565b505050565b6005546001600160a01b0316331461177e5760405162461bcd60e51b815260040161094d90612643565b60008281526007602090815260409182902060030183905581518481529081018390527f71163fade43780aaa187e6cbb8c027121c97cc33677892663953107827f73cc0910160405180910390a15050565b6005546000906001600160a01b031633146117fd5760405162461bcd60e51b815260040161094d90612643565b506005546001600160a01b03163190565b6000611822670de0b6b3a764000034612621565b61182d9060646127ec565b90506118393382611f78565b6040518181527f2d73649f1393ea75df45046ccd2d46c3fe316cc7b4c4df6702e79c6b333ae04e9060200160405180910390a150565b6000601961187c33610ff1565b101561189a5760405162461bcd60e51b815260040161094d906126a0565b6005546118b39033906001600160a01b03166019611dd4565b600680549060006118c3836126ca565b9190505550604051806101200160405280848152602001838152602001336001600160a01b0316815260200160008152602001600060028111156119095761190961219f565b815260200160008152602001835167ffffffffffffffff81111561192f5761192f61238e565b604051908082528060200260200182016040528015611958578160200160208202803683370190505b50815260006020808301829052604092830182905260065482526007905220815181906119859082612851565b50602082810151805161199e9260018501920190612037565b506040820151600282810180546001600160a01b0319166001600160a01b03909316929092179091556060830151600383015560808301516004830180549192909160ff19169060019084908111156119f9576119f961219f565b021790555060a0820151600582015560c08201518051611a2391600684019160209091019061208d565b5060e08201516007820155610100909101516008909101805460ff19169115159190911790556006546040517f6f230f76c01c0302945bd6dea3feb5e915ad4d055584b0a41a7083ca87786d2591611a7e9186903390612911565b60405180910390a15060065492915050565b6001600160a01b03918216600090815260016020908152604080832093909416825291909152205490565b60008181526007602052604090208054606091829160018201908290611ae0906125d1565b80601f0160208091040260200160405190810160405280929190818152602001828054611b0c906125d1565b8015611b595780601f10611b2e57610100808354040283529160200191611b59565b820191906000526020600020905b815481529060010190602001808311611b3c57829003601f168201915b5050505050915080805480602002602001604051908101604052809291908181526020016000905b82821015611c2d578382906000526020600020018054611ba0906125d1565b80601f0160208091040260200160405190810160405280929190818152602001828054611bcc906125d1565b8015611c195780601f10611bee57610100808354040283529160200191611c19565b820191906000526020600020905b815481529060010190602001808311611bfc57829003601f168201915b505050505081526020019060010190611b81565b50505050905091509150915091565b6001600160a01b038316611c9e5760405162461bcd60e51b8152602060048201526024808201527f45524332303a20617070726f76652066726f6d20746865207a65726f206164646044820152637265737360e01b606482015260840161094d565b6001600160a01b038216611cff5760405162461bcd60e51b815260206004820152602260248201527f45524332303a20617070726f766520746f20746865207a65726f206164647265604482015261737360f01b606482015260840161094d565b6001600160a01b0383811660008181526001602090815260408083209487168084529482529182902085905590518481527f8c5be1e5ebec7d5bd14f71427d1e84f3dd0314c0f7b2291e5b200ac8c7c3b925910160405180910390a3505050565b6000611d6c8484611a90565b90506000198114610ec85781811015611dc75760405162461bcd60e51b815260206004820152601d60248201527f45524332303a20696e73756666696369656e7420616c6c6f77616e6365000000604482015260640161094d565b610ec88484848403611c3c565b6001600160a01b038316611e385760405162461bcd60e51b815260206004820152602560248201527f45524332303a207472616e736665722066726f6d20746865207a65726f206164604482015264647265737360d81b606482015260840161094d565b6001600160a01b038216611e9a5760405162461bcd60e51b815260206004820152602360248201527f45524332303a207472616e7366657220746f20746865207a65726f206164647260448201526265737360e81b606482015260840161094d565b6001600160a01b03831660009081526020819052604090205481811015611f125760405162461bcd60e51b815260206004820152602660248201527f45524332303a207472616e7366657220616d6f756e7420657863656564732062604482015265616c616e636560d01b606482015260840161094d565b6001600160a01b03848116600081815260208181526040808320878703905593871680835291849020805487019055925185815290927fddf252ad1be2c89b69c2b068fc378daa952ba7f163c4a11628f55a4df523b3ef910160405180910390a3610ec8565b6001600160a01b038216611fce5760405162461bcd60e51b815260206004820152601f60248201527f45524332303a206d696e7420746f20746865207a65726f206164647265737300604482015260640161094d565b8060026000828254611fe0919061267a565b90915550506001600160a01b038216600081815260208181526040808320805486019055518481527fddf252ad1be2c89b69c2b068fc378daa952ba7f163c4a11628f55a4df523b3ef910160405180910390a35050565b82805482825590600052602060002090810192821561207d579160200282015b8281111561207d578251829061206d9082612851565b5091602001919060010190612057565b506120899291506120d4565b5090565b8280548282559060005260206000209081019282156120c8579160200282015b828111156120c85782518255916020019190600101906120ad565b506120899291506120f1565b808211156120895760006120e88282612106565b506001016120d4565b5b8082111561208957600081556001016120f2565b508054612112906125d1565b6000825580601f10612122575050565b601f016020900490600052602060002090810190610f3191906120f1565b60006020828403121561215257600080fd5b5035919050565b6000815180845260005b8181101561217f57602081850181015186830182015201612163565b506000602082860101526020601f19601f83011685010191505092915050565b634e487b7160e01b600052602160045260246000fd5b600381106121d357634e487b7160e01b600052602160045260246000fd5b9052565b60e0815260006121ea60e083018a612159565b6001600160a01b038916602084015260408301889052905061220f60608301876121b5565b8460808301528360a083015282151560c083015298975050505050505050565b6020815260006122426020830184612159565b9392505050565b80356001600160a01b038116811461226057600080fd5b919050565b6000806040838503121561227857600080fd5b61228183612249565b946020939093013593505050565b6000806000606084860312156122a457600080fd5b6122ad84612249565b92506122bb60208501612249565b9150604084013590509250925092565b600080604083850312156122de57600080fd5b82356003811061228157600080fd5b602081016108ec82846121b5565b60006020828403121561230d57600080fd5b61224282612249565b60008060006060848603121561232b57600080fd5b833592506020840135915061234260408501612249565b90509250925092565b8281526040602082015260006123646040830184612159565b949350505050565b6000806040838503121561237f57600080fd5b50508035926020909101359150565b634e487b7160e01b600052604160045260246000fd5b604051601f8201601f1916810167ffffffffffffffff811182821017156123cd576123cd61238e565b604052919050565b600082601f8301126123e657600080fd5b813567ffffffffffffffff8111156124005761240061238e565b612413601f8201601f19166020016123a4565b81815284602083860101111561242857600080fd5b816020850160208301376000918101602001919091529392505050565b6000806040838503121561245857600080fd5b823567ffffffffffffffff8082111561247057600080fd5b61247c868387016123d5565b935060209150818501358181111561249357600080fd5b8501601f810187136124a457600080fd5b8035828111156124b6576124b661238e565b8060051b6124c58582016123a4565b918252828101850191858101908a8411156124df57600080fd5b86850192505b8383101561251b578235868111156124fd5760008081fd5b61250b8c89838901016123d5565b83525091860191908601906124e5565b809750505050505050509250929050565b6000806040838503121561253f57600080fd5b61254883612249565b915061255660208401612249565b90509250929050565b6040815260006125726040830185612159565b6020838203818501528185518084528284019150828160051b85010183880160005b838110156125c257601f198784030185526125b0838351612159565b94860194925090850190600101612594565b50909998505050505050505050565b600181811c908216806125e557607f821691505b60208210810361260557634e487b7160e01b600052602260045260246000fd5b50919050565b634e487b7160e01b600052601160045260246000fd5b60008261263e57634e487b7160e01b600052601260045260246000fd5b500490565b60208082526019908201527f4f6e6c7920746865206d616e616765722063616e2063616c6c00000000000000604082015260600190565b808201808211156108ec576108ec61260b565b818103818111156108ec576108ec61260b565b60208082526010908201526f696e73756666696369656e742044414f60801b604082015260600190565b6000600182016126dc576126dc61260b565b5060010190565b634e487b7160e01b600052603260045260246000fd5b600181815b8085111561273457816000190482111561271a5761271a61260b565b8085161561272757918102915b93841c93908002906126fe565b509250929050565b60008261274b575060016108ec565b81612758575060006108ec565b816001811461276e576002811461277857612794565b60019150506108ec565b60ff8411156127895761278961260b565b50506001821b6108ec565b5060208310610133831016604e8410600b84101617156127b7575081810a6108ec565b6127c183836126f9565b80600019048211156127d5576127d561260b565b029392505050565b600061224260ff84168361273c565b80820281158282048414176108ec576108ec61260b565b601f82111561174f57600081815260208120601f850160051c8101602086101561282a5750805b601f850160051c820191505b8181101561284957828155600101612836565b505050505050565b815167ffffffffffffffff81111561286b5761286b61238e565b61287f8161287984546125d1565b84612803565b602080601f8311600181146128b4576000841561289c5750858301515b600019600386901b1c1916600185901b178555612849565b600085815260208120601f198616915b828110156128e3578886015182559484019460019091019084016128c4565b50858210156129015787850151600019600388901b60f8161c191681555b5050505050600190811b01905550565b83815260606020820152600061292a6060830185612159565b905060018060a01b038316604083015294935050505056fea264697066735822122038b3d6f082ed016093d23b88603f5f1f67be329a714ebd5fa3a5b8f4e0891af464736f6c63430008150033446563656e7472616c697a65644175746f6e6f6d6f75734f7267616e697a6174696f6e",
    "linkReferences": {}
  },
  "methodIdentifiers": {
    "allowance(address,address)": "dd62ed3e",
    "approve(address,uint256)": "095ea7b3",
    "balanceOf(address)": "70a08231",
    "changeVotingState(uint8,uint256)": "25b56120",
    "checkDAOtokenBalance()": "27db2f71",
    "checkDelegatorsBalance(address)": "328f624c",
    "checkFinalResult(uint256)": "9b93cb50",
    "checkLiveVoteCount(uint256)": "a4c3acdb",
    "checkManagerEthBalance()": "cd2ee0c8",
    "checkPollResult(uint256)": "8707911d",
    "checkProposalDetails(uint256)": "e3d7ed13",
    "checkTokensCostInEther(uint256)": "13cc5724",
    "checkVoteCost(uint256)": "9c7ebe93",
    "checkVotingStatus(uint256)": "2d89edf3",
    "claim()": "4e71d92d",
    "decimals()": "313ce567",
    "decreaseAllowance(address,uint256)": "a457c2d7",
    "delegation(address)": "eed50a32",
    "increaseAllowance(address,uint256)": "39509351",
    "manager()": "481c6a75",
    "name()": "06fdde03",
    "newProposal(string,string[])": "d95c2e7d",
    "pollId()": "6f13ab00",
    "proposals(uint256)": "013cf08b",
    "purchaseDAOtokens()": "ce6696ba",
    "setThreshold(uint256,uint256)": "b9c36209",
    "stake(uint256)": "a694fc3a",
    "stakedAmount(address)": "f9931855",
    "stakedAt(address)": "ef36bbde",
    "symbol()": "95d89b41",
    "totalSupply()": "18160ddd",
    "transfer(address,uint256)": "a9059cbb",
    "transferEthToManager()": "56a89c55",
    "transferFrom(address,address,uint256)": "23b872dd",
    "unStake(uint256)": "5d3eea91",
    "vote(uint256,uint256)": "b384abef",
    "vote(uint256,uint256,address)": "50d91583",
    "votesCast(address,uint256)": "46aafa3b"
  },
  "id": 0
}