{
  "abi": [
    {
      "inputs": [],
      "stateMutability": "nonpayable",
      "type": "constructor"
    },
    {
      "anonymous": false,
      "inputs": [
        {
          "indexed": true,
          "internalType": "address",
          "name": "owner",
          "type": "address"
        },
        {
          "indexed": true,
          "internalType": "address",
          "name": "spender",
          "type": "address"
        },
        {
          "indexed": false,
          "internalType": "uint256",
          "name": "value",
          "type": "uint256"
        }
      ],
      "name": "Approval",
      "type": "event"
    },
    {
      "anonymous": false,
      "inputs": [
        {
          "indexed": true,
          "internalType": "address",
          "name": "from",
          "type": "address"
        },
        {
          "indexed": true,
          "internalType": "address",
          "name": "to",
          "type": "address"
        },
        {
          "indexed": false,
          "internalType": "uint256",
          "name": "value",
          "type": "uint256"
        }
      ],
      "name": "Transfer",
      "type": "event"
    },
    {
      "anonymous": false,
      "inputs": [
        {
          "indexed": false,
          "internalType": "uint256",
          "name": "proposalId",
          "type": "uint256"
        },
        {
          "indexed": false,
          "internalType": "string",
          "name": "proposal",
          "type": "string"
        },
        {
          "indexed": false,
          "internalType": "address",
          "name": "proposer",
          "type": "address"
        }
      ],
      "name": "newProposalDetails",
      "type": "event"
    },
    {
      "anonymous": false,
      "inputs": [
        {
          "indexed": false,
          "internalType": "uint256",
          "name": "proposalId",
          "type": "uint256"
        },
        {
          "indexed": false,
          "internalType": "uint256",
          "name": "threshold",
          "type": "uint256"
        }
      ],
      "name": "thresholdSet",
      "type": "event"
    },
    {
      "anonymous": false,
      "inputs": [
        {
          "indexed": false,
          "internalType": "uint256",
          "name": "tokensPurchased",
          "type": "uint256"
        }
      ],
      "name": "tokensPurchased",
      "type": "event"
    },
    {
      "inputs": [
        {
          "internalType": "address",
          "name": "owner",
          "type": "address"
        },
        {
          "internalType": "address",
          "name": "spender",
          "type": "address"
        }
      ],
      "name": "allowance",
      "outputs": [
        {
          "internalType": "uint256",
          "name": "",
          "type": "uint256"
        }
      ],
      "stateMutability": "view",
      "type": "function"
    },
    {
      "inputs": [
        {
          "internalType": "address",
          "name": "spender",
          "type": "address"
        },
        {
          "internalType": "uint256",
          "name": "amount",
          "type": "uint256"
        }
      ],
      "name": "approve",
      "outputs": [
        {
          "internalType": "bool",
          "name": "",
          "type": "bool"
        }
      ],
      "stateMutability": "nonpayable",
      "type": "function"
    },
    {
      "inputs": [
        {
          "internalType": "address",
          "name": "account",
          "type": "address"
        }
      ],
      "name": "balanceOf",
      "outputs": [
        {
          "internalType": "uint256",
          "name": "",
          "type": "uint256"
        }
      ],
      "stateMutability": "view",
      "type": "function"
    },
    {
      "inputs": [],
      "name": "checkDAOtokenBalance",
      "outputs": [
        {
          "internalType": "uint256",
          "name": "",
          "type": "uint256"
        }
      ],
      "stateMutability": "view",
      "type": "function"
    },
    {
      "inputs": [
        {
          "internalType": "uint256",
          "name": "tokens",
          "type": "uint256"
        }
      ],
      "name": "checkTokensCostInEther",
      "outputs": [
        {
          "internalType": "uint256",
          "name": "",
          "type": "uint256"
        }
      ],
      "stateMutability": "view",
      "type": "function"
    },
    {
      "inputs": [],
      "name": "decimals",
      "outputs": [
        {
          "internalType": "uint8",
          "name": "",
          "type": "uint8"
        }
      ],
      "stateMutability": "view",
      "type": "function"
    },
    {
      "inputs": [
        {
          "internalType": "address",
          "name": "spender",
          "type": "address"
        },
        {
          "internalType": "uint256",
          "name": "subtractedValue",
          "type": "uint256"
        }
      ],
      "name": "decreaseAllowance",
      "outputs": [
        {
          "internalType": "bool",
          "name": "",
          "type": "bool"
        }
      ],
      "stateMutability": "nonpayable",
      "type": "function"
    },
    {
      "inputs": [
        {
          "internalType": "address",
          "name": "spender",
          "type": "address"
        },
        {
          "internalType": "uint256",
          "name": "addedValue",
          "type": "uint256"
        }
      ],
      "name": "increaseAllowance",
      "outputs": [
        {
          "internalType": "bool",
          "name": "",
          "type": "bool"
        }
      ],
      "stateMutability": "nonpayable",
      "type": "function"
    },
    {
      "inputs": [],
      "name": "manager",
      "outputs": [
        {
          "internalType": "address",
          "name": "",
          "type": "address"
        }
      ],
      "stateMutability": "view",
      "type": "function"
    },
    {
      "inputs": [],
      "name": "name",
      "outputs": [
        {
          "internalType": "string",
          "name": "",
          "type": "string"
        }
      ],
      "stateMutability": "view",
      "type": "function"
    },
    {
      "inputs": [
        {
          "internalType": "string",
          "name": "proposal",
          "type": "string"
        }
      ],
      "name": "newProposal",
      "outputs": [
        {
          "internalType": "uint256",
          "name": "",
          "type": "uint256"
        }
      ],
      "stateMutability": "nonpayable",
      "type": "function"
    },
    {
      "inputs": [],
      "name": "proposalId",
      "outputs": [
        {
          "internalType": "uint256",
          "name": "",
          "type": "uint256"
        }
      ],
      "stateMutability": "view",
      "type": "function"
    },
    {
      "inputs": [
        {
          "internalType": "uint256",
          "name": "",
          "type": "uint256"
        }
      ],
      "name": "proposals",
      "outputs": [
        {
          "internalType": "string",
          "name": "proposal",
          "type": "string"
        },
        {
          "internalType": "address",
          "name": "proposer",
          "type": "address"
        },
        {
          "internalType": "uint256",
          "name": "threshold",
          "type": "uint256"
        },
        {
          "internalType": "enum DAO.VotingStatus",
          "name": "votingStatus",
          "type": "uint8"
        },
        {
          "internalType": "uint256",
          "name": "resultCount",
          "type": "uint256"
        },
        {
          "internalType": "bool",
          "name": "result",
          "type": "bool"
        }
      ],
      "stateMutability": "view",
      "type": "function"
    },
    {
      "inputs": [
        {
          "internalType": "uint256",
          "name": "tokens",
          "type": "uint256"
        }
      ],
      "name": "purchaseDAOtokens",
      "outputs": [],
      "stateMutability": "payable",
      "type": "function"
    },
    {
      "inputs": [
        {
          "internalType": "uint256",
          "name": "_proposalId",
          "type": "uint256"
        },
        {
          "internalType": "uint256",
          "name": "threshold",
          "type": "uint256"
        }
      ],
      "name": "setThreshold",
      "outputs": [],
      "stateMutability": "nonpayable",
      "type": "function"
    },
    {
      "inputs": [],
      "name": "symbol",
      "outputs": [
        {
          "internalType": "string",
          "name": "",
          "type": "string"
        }
      ],
      "stateMutability": "view",
      "type": "function"
    },
    {
      "inputs": [],
      "name": "tokensPerEther",
      "outputs": [
        {
          "internalType": "uint256",
          "name": "",
          "type": "uint256"
        }
      ],
      "stateMutability": "view",
      "type": "function"
    },
    {
      "inputs": [],
      "name": "totalSupply",
      "outputs": [
        {
          "internalType": "uint256",
          "name": "",
          "type": "uint256"
        }
      ],
      "stateMutability": "view",
      "type": "function"
    },
    {
      "inputs": [
        {
          "internalType": "address",
          "name": "to",
          "type": "address"
        },
        {
          "internalType": "uint256",
          "name": "amount",
          "type": "uint256"
        }
      ],
      "name": "transfer",
      "outputs": [
        {
          "internalType": "bool",
          "name": "",
          "type": "bool"
        }
      ],
      "stateMutability": "nonpayable",
      "type": "function"
    },
    {
      "inputs": [
        {
          "internalType": "address",
          "name": "from",
          "type": "address"
        },
        {
          "internalType": "address",
          "name": "to",
          "type": "address"
        },
        {
          "internalType": "uint256",
          "name": "amount",
          "type": "uint256"
        }
      ],
      "name": "transferFrom",
      "outputs": [
        {
          "internalType": "bool",
          "name": "",
          "type": "bool"
        }
      ],
      "stateMutability": "nonpayable",
      "type": "function"
    }
  ],
  "bytecode": {
    "object": "0x608060405260646006553480156200001657600080fd5b5060405180606001604052806023815260200162001358602391396040805180820190915260038082526244414f60e81b602083015262000058838262000127565b50600462000067828262000127565b5050600580546001600160a01b0319163317905550620001f3565b634e487b7160e01b600052604160045260246000fd5b600181811c90821680620000ad57607f821691505b602082108103620000ce57634e487b7160e01b600052602260045260246000fd5b50919050565b601f8211156200012257600081815260208120601f850160051c81016020861015620000fd5750805b601f850160051c820191505b818110156200011e5782815560010162000109565b5050505b505050565b81516001600160401b0381111562000143576200014362000082565b6200015b8162000154845462000098565b84620000d4565b602080601f8311600181146200019357600084156200017a5750858301515b600019600386901b1c1916600185901b1785556200011e565b600085815260208120601f198616915b82811015620001c457888601518255948401946001909101908401620001a3565b5085821015620001e35787850151600019600388901b60f8161c191681555b5050505050600190811b01905550565b61115580620002036000396000f3fe60806040526004361061011f5760003560e01c8063481c6a75116100a0578063a9059cbb11610064578063a9059cbb1461034b578063b9c362091461036b578063c66569831461038d578063dd62ed3e146103a0578063f856d605146103c057600080fd5b8063481c6a75146102885780634f24186a146102c057806370a08231146102e057806395d89b4114610316578063a457c2d71461032b57600080fd5b806323b872dd116100e757806323b872dd146101f457806327db2f71146102145780632dfca44514610236578063313ce5671461024c578063395093511461026857600080fd5b8063013cf08b1461012457806306fdde031461015f578063095ea7b31461018157806313cc5724146101b157806318160ddd146101df575b600080fd5b34801561013057600080fd5b5061014461013f366004610c92565b6103d6565b60405161015696959493929190610d07565b60405180910390f35b34801561016b57600080fd5b506101746104a3565b6040516101569190610d6f565b34801561018d57600080fd5b506101a161019c366004610da5565b610535565b6040519015158152602001610156565b3480156101bd57600080fd5b506101d16101cc366004610c92565b61054f565b604051908152602001610156565b3480156101eb57600080fd5b506002546101d1565b34801561020057600080fd5b506101a161020f366004610dcf565b61055f565b34801561022057600080fd5b50336000908152602081905260409020546101d1565b34801561024257600080fd5b506101d160075481565b34801561025857600080fd5b5060405160128152602001610156565b34801561027457600080fd5b506101a1610283366004610da5565b610583565b34801561029457600080fd5b506005546102a8906001600160a01b031681565b6040516001600160a01b039091168152602001610156565b3480156102cc57600080fd5b506101d16102db366004610e21565b6105a5565b3480156102ec57600080fd5b506101d16102fb366004610ed2565b6001600160a01b031660009081526020819052604090205490565b34801561032257600080fd5b506101746106d8565b34801561033757600080fd5b506101a1610346366004610da5565b6106e7565b34801561035757600080fd5b506101a1610366366004610da5565b610767565b34801561037757600080fd5b5061038b610386366004610eed565b610775565b005b61038b61039b366004610c92565b610821565b3480156103ac57600080fd5b506101d16103bb366004610f0f565b610861565b3480156103cc57600080fd5b506101d160065481565b6008602052600090815260409020805481906103f190610f42565b80601f016020809104026020016040519081016040528092919081815260200182805461041d90610f42565b801561046a5780601f1061043f5761010080835404028352916020019161046a565b820191906000526020600020905b81548152906001019060200180831161044d57829003601f168201915b505050600184015460028501546003860154600487015460059097015495966001600160a01b039093169591945060ff90811693501686565b6060600380546104b290610f42565b80601f01602080910402602001604051908101604052809291908181526020018280546104de90610f42565b801561052b5780601f106105005761010080835404028352916020019161052b565b820191906000526020600020905b81548152906001019060200180831161050e57829003601f168201915b5050505050905090565b60003361054381858561088c565b60019150505b92915050565b6000600654826105499190610f92565b60003361056d8582856109b0565b610578858585610a2a565b506001949350505050565b6000336105438185856105968383610861565b6105a09190610fb4565b61088c565b60078054600091826105b683610fc7565b90915550506040805160c081018252838152336020820152600091810182905290606082019081526000602080830182905260409283018290526007548252600890522081518190610608908261102e565b5060208201518160010160006101000a8154816001600160a01b0302191690836001600160a01b031602179055506040820151816002015560608201518160030160006101000a81548160ff0219169083600281111561066a5761066a610cf1565b02179055506080820151600482015560a0909101516005909101805460ff19169115159190911790556007546040517f6f230f76c01c0302945bd6dea3feb5e915ad4d055584b0a41a7083ca87786d25916106c891859033906110ee565b60405180910390a1505060075490565b6060600480546104b290610f42565b600033816106f58286610861565b90508381101561075a5760405162461bcd60e51b815260206004820152602560248201527f45524332303a2064656372656173656420616c6c6f77616e63652062656c6f77604482015264207a65726f60d81b60648201526084015b60405180910390fd5b610578828686840361088c565b600033610543818585610a2a565b6005546001600160a01b031633146107cf5760405162461bcd60e51b815260206004820152601960248201527f4f6e6c7920746865206d616e616765722063616e2063616c6c000000000000006044820152606401610751565b60008281526008602090815260409182902060020183905581518481529081018390527f71163fade43780aaa187e6cbb8c027121c97cc33677892663953107827f73cc0910160405180910390a15050565b61082b3382610bce565b6040518181527f2d73649f1393ea75df45046ccd2d46c3fe316cc7b4c4df6702e79c6b333ae04e9060200160405180910390a150565b6001600160a01b03918216600090815260016020908152604080832093909416825291909152205490565b6001600160a01b0383166108ee5760405162461bcd60e51b8152602060048201526024808201527f45524332303a20617070726f76652066726f6d20746865207a65726f206164646044820152637265737360e01b6064820152608401610751565b6001600160a01b03821661094f5760405162461bcd60e51b815260206004820152602260248201527f45524332303a20617070726f766520746f20746865207a65726f206164647265604482015261737360f01b6064820152608401610751565b6001600160a01b0383811660008181526001602090815260408083209487168084529482529182902085905590518481527f8c5be1e5ebec7d5bd14f71427d1e84f3dd0314c0f7b2291e5b200ac8c7c3b925910160405180910390a3505050565b60006109bc8484610861565b90506000198114610a245781811015610a175760405162461bcd60e51b815260206004820152601d60248201527f45524332303a20696e73756666696369656e7420616c6c6f77616e63650000006044820152606401610751565b610a24848484840361088c565b50505050565b6001600160a01b038316610a8e5760405162461bcd60e51b815260206004820152602560248201527f45524332303a207472616e736665722066726f6d20746865207a65726f206164604482015264647265737360d81b6064820152608401610751565b6001600160a01b038216610af05760405162461bcd60e51b815260206004820152602360248201527f45524332303a207472616e7366657220746f20746865207a65726f206164647260448201526265737360e81b6064820152608401610751565b6001600160a01b03831660009081526020819052604090205481811015610b685760405162461bcd60e51b815260206004820152602660248201527f45524332303a207472616e7366657220616d6f756e7420657863656564732062604482015265616c616e636560d01b6064820152608401610751565b6001600160a01b03848116600081815260208181526040808320878703905593871680835291849020805487019055925185815290927fddf252ad1be2c89b69c2b068fc378daa952ba7f163c4a11628f55a4df523b3ef910160405180910390a3610a24565b6001600160a01b038216610c245760405162461bcd60e51b815260206004820152601f60248201527f45524332303a206d696e7420746f20746865207a65726f2061646472657373006044820152606401610751565b8060026000828254610c369190610fb4565b90915550506001600160a01b038216600081815260208181526040808320805486019055518481527fddf252ad1be2c89b69c2b068fc378daa952ba7f163c4a11628f55a4df523b3ef910160405180910390a35050565b505050565b600060208284031215610ca457600080fd5b5035919050565b6000815180845260005b81811015610cd157602081850181015186830182015201610cb5565b506000602082860101526020601f19601f83011685010191505092915050565b634e487b7160e01b600052602160045260246000fd5b60c081526000610d1a60c0830189610cab565b6001600160a01b038816602084015260408301879052905060038510610d5057634e487b7160e01b600052602160045260246000fd5b84606083015283608083015282151560a0830152979650505050505050565b602081526000610d826020830184610cab565b9392505050565b80356001600160a01b0381168114610da057600080fd5b919050565b60008060408385031215610db857600080fd5b610dc183610d89565b946020939093013593505050565b600080600060608486031215610de457600080fd5b610ded84610d89565b9250610dfb60208501610d89565b9150604084013590509250925092565b634e487b7160e01b600052604160045260246000fd5b600060208284031215610e3357600080fd5b813567ffffffffffffffff80821115610e4b57600080fd5b818401915084601f830112610e5f57600080fd5b813581811115610e7157610e71610e0b565b604051601f8201601f19908116603f01168101908382118183101715610e9957610e99610e0b565b81604052828152876020848701011115610eb257600080fd5b826020860160208301376000928101602001929092525095945050505050565b600060208284031215610ee457600080fd5b610d8282610d89565b60008060408385031215610f0057600080fd5b50508035926020909101359150565b60008060408385031215610f2257600080fd5b610f2b83610d89565b9150610f3960208401610d89565b90509250929050565b600181811c90821680610f5657607f821691505b602082108103610f7657634e487b7160e01b600052602260045260246000fd5b50919050565b634e487b7160e01b600052601160045260246000fd5b600082610faf57634e487b7160e01b600052601260045260246000fd5b500490565b8082018082111561054957610549610f7c565b600060018201610fd957610fd9610f7c565b5060010190565b601f821115610c8d57600081815260208120601f850160051c810160208610156110075750805b601f850160051c820191505b8181101561102657828155600101611013565b505050505050565b815167ffffffffffffffff81111561104857611048610e0b565b61105c816110568454610f42565b84610fe0565b602080601f83116001811461109157600084156110795750858301515b600019600386901b1c1916600185901b178555611026565b600085815260208120601f198616915b828110156110c0578886015182559484019460019091019084016110a1565b50858210156110de5787850151600019600388901b60f8161c191681555b5050505050600190811b01905550565b8381526060602082015260006111076060830185610cab565b905060018060a01b038316604083015294935050505056fea26469706673582212209c89834ee941b2d87a9f085a78d5246539810aab3f37feec8db9e09d62498ab164736f6c63430008150033446563656e7472616c697a65644175746f6e6f6d6f75734f7267616e697a6174696f6e",
    "linkReferences": {}
  },
  "methodIdentifiers": {
    "allowance(address,address)": "dd62ed3e",
    "approve(address,uint256)": "095ea7b3",
    "balanceOf(address)": "70a08231",
    "checkDAOtokenBalance()": "27db2f71",
    "checkTokensCostInEther(uint256)": "13cc5724",
    "decimals()": "313ce567",
    "decreaseAllowance(address,uint256)": "a457c2d7",
    "increaseAllowance(address,uint256)": "39509351",
    "manager()": "481c6a75",
    "name()": "06fdde03",
    "newProposal(string)": "4f24186a",
    "proposalId()": "2dfca445",
    "proposals(uint256)": "013cf08b",
    "purchaseDAOtokens(uint256)": "c6656983",
    "setThreshold(uint256,uint256)": "b9c36209",
    "symbol()": "95d89b41",
    "tokensPerEther()": "f856d605",
    "totalSupply()": "18160ddd",
    "transfer(address,uint256)": "a9059cbb",
    "transferFrom(address,address,uint256)": "23b872dd"
  },
  "id": 0
}